:020000040000FA
:1000000008050010812A0000892A00008B2A0000C0
:100010008D2A00008F2A0000912A000000000000B5
:10002000000000000000000000000000932A000013
:10003000952A000000000000972A000071020000CD
:100040009B2A0000B9020000D30200009B2A000096
:100050009B2A00009B2A00009B2A00009B2A00008C
:100060009B2A00009B2A00009B2A00009B2A00007C
:100070009B2A00009B2A00009B2A00009B2A00006C
:100080009B2A00009B2A00009B2A00009B2A00005C
:100090009B2A00009B2A00009B2A00009B2A00004C
:1000A0009B2A00009B2A00009B2A00009B2A00003C
:1000B0009B2A00009B2A00009B2A00009B2A00002C
:1000C0009B2A00009B2A00009B2A000000F002F8F7
:1000D00000F096F80AA090E8000C82448344AAF14C
:1000E0000107DA4501D100F08BF8AFF2090EBAE84A
:1000F0000F0013F0010F18BFFB1A43F0010318475C
:10010000E846000008470000103A24BF78C878C1CC
:10011000FAD8520724BF30C830C144BF04680C600D
:10012000704700000023002400250026103A28BF55
:1001300078C1FBD8520728BF30C148BF0B60704759
:100140006E2902F04787702903F09080662904F039
:100150005682652904F05382672904F05082612990
:10016000AFF3008003681B0A28BF41F080016929B2
:1001700002F0F486642902F0F186752902F0EE8619
:100180006F2903F01B80782903F05C80E92902F0D5
:10019000B387E42902F0B087F52902F0AD87EF2993
:1001A00003F01880F82903F05B800368DB0928BF9F
:1001B00041F08001632903F02684732903F02B8426
:1001C000E32903F03684F32903F03B8400207047D1
:1001D0001FB504F00DFA9DE8030002F025FE03F0C0
:1001E000AFFC04000020002104F0ECF9401C60602A
:1001F0000020002104F0D0F9E0601FBD10B510BD53
:1002000003F071FC1146FFF7E3FF00F018F803F06C
:100210004DFD03B4FFF7F2FF03BC03F07BFD0000CC
:1002200072B64FF00000704762B64FF000007047A2
:1002300010B50948016809A002F0F4FA10BD02F0F7
:1002400024FA02F054FC02F082FCFFF7F1FF02F006
:100250003BFD00BFFEE7000080000010537973747F
:10026000656D4672657175656E63793A25640A003D
:1002700010480068401C0F490860704700BF411ECD
:10028000C9B20800FBD17047002001E0411CC8B290
:100290000A28FBDB704700B5024605E0F520FFF7B2
:1002A000EDFFF520FFF7EAFF1000A2F10102F5D102
:1002B00000BD00000000001010B501204FF04021EB
:1002C000086000F04CF807480068401C05490860C9
:1002D00010BD01200449086004480068401C03491F
:1002E00008607047340000100080004038000010A3
:1002F000704770477047704770477047FFFFFFFFB8
:100300002548C06820F030002349C8600846C0680E
:10031000C8602248006A40F48020204908620846EC
:10032000C06B20F48020C863704700B5FFF7E8FF7A
:1003300000BD1A48C06B40F480201849C86370475C
:1003400000B5FFF7F6FF00BD1448806B40F4802035
:1003500012498863704700B5FFF7F6FF00BD10B57E
:100360000F48006810F0010F02D0FFF7E2FF01E034
:10037000FFF7EAFF0A4800680921B0FBF1F201FB30
:10038000120010B907A002F04DFA05480068401CA1
:100390000349086010BD000000C0024000C00920F1
:1003A000040000107E7E7E7E72756E6E696E670A36
:1003B000000000005848006840F008005749C1F8A4
:1003C000C40070475648006820F030005449086067
:1003D0000846006840F0100008600846006820F0F9
:1003E000C00008600846006840F0400008607047A0
:1003F00010B501204B494860052001218140420988
:100400004FF0E02303EB8202C2F8001100BF20216D
:10041000002807DACA06140E434A00F00F031B1F18
:10042000D45403E0CA06130E404A135400BF10BD53
:10043000F0B50646FFF7BEFFFFF7C4FF3C48006873
:10044000C0F3811737B1012F08D0022F09D0032F35
:100450000BD000BF3748006884080AE035480468BC
:1004600007E034480068440803E032480068C408E4
:1004700000BF00BF83202B49C8602009B0FBF6F500
:10048000280A4860E8B208600320C8600720886036
:1004900001204860FFF7ACFFF0BD0520012181403D
:1004A000254A430942F8231000BF704701460A2934
:1004B00008D100BF1B48406910F0200FFAD00D2072
:1004C000184A106000BF1748406910F0200FFAD09A
:1004D000144801600020704700BF1249496911F0BB
:1004E000010FFAD00F490868704700B503460A4665
:1004F00003E0FFF7F1FF01C3521E002AF9D100BD4E
:1005000000B5034603E013F8010BFFF7CFFF18789F
:100510000028F8D100BD0000C4C00F4000C00F404B
:1005200000C0024000C0004018ED00E000E400E020
:10053000A8C10F408000001080E100E03149087040
:10054000704700202F490870704700B5FFF7F9FF8A
:100550000120FFF7F3FF00BD2A480078C0F3000038
:10056000012800D170470020FCE710B50446FFF7D2
:10057000F3FF18B1204600F05DFB02E0204600F0DA
:10058000FBF910BD10B50446FFF7E6FF18B1204691
:1005900000F069FB02E0204600F003FA10BD70B5E0
:1005A00004460D461646FFF7D7FF28B132462946C6
:1005B000204600F080FB04E032462946204600F049
:1005C0007DFA70BD70B504460D461646FFF7C4FFB0
:1005D00028B132462946204600F0F6FB04E03246B8
:1005E0002946204600F0B0FA70BD10B50446FFF76A
:1005F000B3FF18B1204600F06CFC02E0204600F08A
:10060000E7FA10BD080000100020F849086108460C
:10061000806940F4803088617047F448806D40F410
:100620008070F24988657047F048C06D40F0400026
:10063000EE49C865704710B50446002C7DD1EC48E2
:10064000006840F40010EB49C1F8C4004FF000000E
:10065000E64908610865E848006920F44050E64929
:100660000861084600690861E048006C40F04000FD
:10067000DE4908640846C06D20F04000C865DE48C9
:10068000006920F44040DC490861084600690861BF
:10069000D648006C40F08000D44908640846806D5C
:1006A00040F080008865D448006920F44030D24989
:1006B0000861084600690861CC48006C40F480700D
:1006C000CA4908640846806D40F480708865CA484D
:1006D000406820F00300C849486008464068486008
:1006E000C248006840F48030C0490860084680690C
:1006F00040F480308861C048006820F08040BE49E6
:1007000008600846006840F00040086008464068FD
:1007100020F00C0048600846406840F0080048603F
:100720000846406820F0300048600846406840F0C5
:1007300020004860FFF778FF00E00CE0FFF76DFF56
:10074000FFF762FF0720AD49086002204860622081
:100750000861FFF759FFFFF7F8FE10BD0146A748F3
:10076000816000BFA548C06810F0100FFAD1A348FF
:100770008068C0B27047FF20A049886000BF9F48D2
:10078000C06810F0100FFAD19C488068C0B2704762
:100790007CB50546002400BF07E045FA04F000F0F0
:1007A00001000DF80400601C44B2082CF5DB0024A5
:1007B00008E0C4F107001DF8001091A002F032F823
:1007C000601C44B2082CF4DB8EA002F02BF87CBD38
:1007D0000020864908610846C06940F48030C8613D
:1007E000704770B50446FFF7F3FF0520FFF7B6FF2B
:1007F000FFF7C1FF0546FFF707FF4CB1294682A06E
:1008000002F010F885A002F00DF82846FFF7C0FFAF
:10081000284670BD10B500BF0020FFF7E2FF10F0C2
:10082000010FF9D110BD00B50246FFF7D1FF104608
:10083000FFF794FFFFF7E8FE00BD6C48806D40F0C5
:1008400040006A498865704700B55020FFF7EBFF0C
:1008500000BD00B50346FFF7F7FFFFF7B9FF3120F2
:10086000FFF77CFF1846FFF779FFFFF7CDFE00BDCD
:1008700070B50446FFF7ACFF3520FFF76FFFFFF7B9
:100880007AFF0546FFF7C0FE4CB129466CA001F087
:10089000C9FF70A001F0C6FF2846FFF779FF284680
:1008A00070BD00B50346FFF7CFFFFFF791FF0120B2
:1008B000FFF754FF1846FFF751FFFFF7A5FE00BDF5
:1008C00010B50020FFF78DFF20F07C042046FFF7D5
:1008D000E8FF0020FFF7CCFF20F040042046FFF7A0
:1008E000B8FF0620FFF79FFFFFF7A7FF10BD10B569
:1008F0000020FFF776FF40F07C042046FFF7D1FF91
:100900000020FFF7B5FF40F040042046FFF7A1FFAD
:100910000420FFF788FFFFF787FE10BD00B5B72062
:10092000FFF781FF00BD00B5E920FFF77CFF00BDA8
:1009300070B50446FFF74CFF1520FFF70FFFFFF7D8
:100940001AFF0546FFF760FE4CB129464AA001F0A8
:1009500069FF4EA001F066FF2846FFF719FF284601
:1009600070BD10B50120FFF73CFF0120FFF780FFAD
:100970000120FFF7DDFF10BD00B50246FFF728FF9D
:100980009F20FFF7EBFEFFF7F6FE1070521CFFF7FB
:10099000F2FE1070521CFFF7EEFE1070FFF734FEEF
:1009A00000BD00B50246FFF713FF4B20FFF7D6FE50
:1009B000FFF7E1FEFFF7DFFEFFF7DDFEFFF7DBFEEF
:1009C000FFF7D9FE1070521CFFF7D5FE1070FFF72D
:1009D0001BFE00BD01463748814201D90120704706
:1009E00011F0030F68D00120F9E765E000C009208D
:1009F000C4C00F4000C00F4000C00240008008404B
:100A0000256409000A0000007374617475735F72D5
:100A10006567313A3078253032780A0053525030C9
:100A200009544209425033094250320942503109B7
:100A30004250300957454C09425553590A000000AD
:100A40007374617475735F726567323A30782530FC
:100A500032780A0053555309434D50094C4233092B
:100A60004C4232094C423109285229095145095357
:100A70005052310A000000007374617475735F7224
:100A80006567333A3078253032780A00484F4C4455
:100A90002F5253542044525631094452563009289B
:100AA00052290928522909575053094144500941F4
:100AB00044530A000000FF01002090E72DE9F84FA1
:100AC00005460E4617464FF0000B4FEA470A6C02E8
:100AD000D84635E002208DF80000200C8DF801008A
:100AE000200A8DF80200E0B28DF80300FFF7E8FE5F
:100AF000FFF76EFE9DF80000FFF730FE9DF8010045
:100B0000FFF72CFE9DF80200FFF728FE9DF803007A
:100B1000FFF724FE4FF0000907E059460BF1010BE7
:100B2000705CFFF71BFE09F10109B9F1FF0FF4D961
:100B3000FFF76AFD04F58074FFF76CFE08F1010809
:100B4000D045C7D3BDE8F88F2DE9F84F05460E46CE
:100B500017464FF0000B4FEA470A6C02D84633E0C5
:100B600003208DF80000200C8DF80100200A8DF87C
:100B70000200E0B28DF80300FFF72AFE9DF80000A6
:100B8000FFF7ECFD9DF80100FFF7E8FD9DF802007E
:100B9000FFF7E4FD9DF80300FFF7E0FD4FF00009CB
:100BA00007E0FFF7E8FD59460BF1010B705409F11E
:100BB0000109B9F1FF0FF4D9FFF726FD04F58074A0
:100BC000FFF728FE08F10108D045C9D3BDE8F88F2A
:100BD00038B505462C032046FFF7FCFE012803D15B
:100BE000FAA001F01FFE38BDFFF76AFEFFF7F0FD27
:100BF00020208DF80000200C8DF80100200A8DF8CF
:100C00000200E0B28DF803009DF80000FFF7A6FD9A
:100C10009DF80100FFF7A2FD9DF80200FFF79EFD81
:100C20009DF80300FFF79AFDFFF7EEFCFFF7F2FDDA
:100C300000BFD8E710B50446FFF770FEFFF7C8FD08
:100C40009F20FFF78BFDFFF796FD2070641CFFF7D8
:100C500092FD2070641CFFF78EFD2070FFF7D4FC1E
:100C6000FFF761FE10BD10B50446FFF757FEFFF712
:100C7000AFFD4B20FFF772FDFFF77DFDFFF77BFD1A
:100C8000FFF779FDFFF777FDFFF775FDFFF773FDC0
:100C90002070641CFFF76FFD2070641CFFF76BFD74
:100CA0002070641CFFF767FD2070641CFFF7ACFC2C
:100CB000FFF739FE10BD2DE9FC5F05460E461746CD
:100CC0004FF0000B4FEA470A6C02FFF727FED846A9
:100CD0003EE002208DF80000200E8DF80100200C6F
:100CE0008DF80200200A8DF80300E0B28DF80400B0
:100CF000FFF7E6FDFFF76CFD9DF80000FFF72EFD06
:100D00009DF80100FFF72AFD9DF80200FFF726FD80
:100D10009DF80300FFF722FD9DF80400FFF71EFD7C
:100D20004FF0000907E059460BF1010B705CFFF72B
:100D300015FD09F10109B9F1FF0FF4D9FFF764FCC2
:100D4000FFF7A2FA04F58074FFF764FD08F10108CB
:100D5000D045BED3FFF7E7FDBDE8FC9F7CB5044658
:100D60000D4602208DF80000200E8DF80100200CA9
:100D70008DF80200200A8DF80300E0B28DF804001F
:100D8000FFF7CCFDFFF79CFDFFF722FD9DF800006B
:100D9000FFF7E4FC9DF80100FFF7E0FC9DF802007E
:100DA000FFF7DCFC9DF80300FFF7D8FC9DF804007A
:100DB000FFF7D4FC2846FFF7D1FCFFF725FCFFF72F
:100DC00029FDFFF7B0FD7CBD2DE9FC5F05460E4611
:100DD00017464FF0000B4FEA470A6C02FFF79EFDE3
:100DE000D8463CE003208DF80000200E8DF801006D
:100DF000200C8DF80200200A8DF80300E0B28DF877
:100E00000400FFF7E5FC9DF80000FFF7A7FC9DF844
:100E10000100FFF7A3FC9DF80200FFF79FFC9DF87F
:100E20000300FFF79BFC9DF80400FFF797FC4FF0D1
:100E3000000907E0FFF79FFC59460BF1010B7054C6
:100E400009F10109B9F1FF0FF4D9FFF7DDFBFFF755
:100E50001BFA04F58074FFF7DDFC08F10108D045AA
:100E6000C0D3FFF760FDBDE8FC9F7CB504460320BE
:100E70008DF80000200E8DF80100200C8DF8020086
:100E8000200A8DF80300E0B28DF80400FFF746FD5C
:100E9000FFF79EFC9DF80000FFF760FC9DF8010045
:100EA000FFF75CFC9DF80200FFF758FC9DF803007B
:100EB000FFF754FC9DF80400FFF750FCFFF75BFCC4
:100EC0000546FFF7A1FBFFF7A5FCFFF72CFD284621
:100ED0007CBD7CB505462C032046FFF77BFD012831
:100EE00003D13AA001F09EFC7CBDFFF717FDFFF790
:100EF000A4FCFFF7E5FCFFF76BFC20208DF8000059
:100F0000C4F303608DF80100200C8DF80200200A64
:100F10008DF80300E0B28DF804009DF80000FFF7A3
:100F20001DFC9DF80100FFF719FC9DF80200FFF77A
:100F300015FC9DF80300FFF711FC9DF80400FFF776
:100F40000DFCFFF761FBFFF765FCFFF7D0FCFFF737
:100F50006BFBFFF7E8FC00BFC6E71CB5044620208A
:100F60008DF80000C4F303608DF80100200C8DF8AB
:100F70000200200A8DF80300E0B28DF80400FFF7AC
:100F8000CDFCFFF75AFCFFF79BFCFFF721FC9DF817
:100F90000000FFF7E3FB9DF80100FFF7DFFB9DF882
:100FA0000200FFF7DBFB9DF80300FFF7D7FB9DF87E
:100FB0000400FFF7D3FBFFF727FBFFF72BFCFFF73E
:100FC00096FCFFF731FBFFF7AEFC1CBD6572722C7F
:100FD00065726173652061646472206976616C6911
:100FE00064210A0000B50346FFF72EFCFFF7F0FB73
:100FF0001120FFF7B3FB1846FFF7B0FBFFF704FB28
:1010000000BD00B54020FFF724FC00BD00B5002066
:10101000FFF71FFC00BD00B50420FFF7E3FF00BD94
:1010200000B50020FFF7DEFF00BD10B501F0F1FDB7
:1010300010BD10B501F0E8FD10BD10B550A001F0D5
:10104000F1FBFFF7F6FFFFF7F8FBFFF739FCFFF7BF
:10105000BFFBC720FFF782FBFFF7D6FAFFF7E4FAE2
:10106000FFF7D8FBFFF7E1FF4AA001F0DBFB49A047
:1010700001F0D8FB47A001F0D5FB46A001F0D2FB60
:1010800044A001F0CFFB43A001F0CCFB10BD38B56C
:101090006846FFF76AFA9DF80000EF2804D044A0E4
:1010A00001F0C0FB002038BD9DF802009DF8011042
:1010B00040EA0125A5F58040183802D14FF480544C
:1010C00038E0A5F58040173802D14FF4006431E0D4
:1010D000A5F58040173802D14FF400642AE0A5F549
:1010E0008040163802D14FF4806423E0A5F5C0405B
:1010F000163802D14FF480641CE0A5F58040153805
:1011000002D14FF4007415E0A5F5C040153802D1A6
:101110004FF400740EE0A5F58040143802D14FF46E
:10112000807407E0A5F58040193802D14FF40074AF
:1011300000E00024294626A001F074FBE004040C22
:101140002046B0E738B5002400200090FFF740FBB0
:101150009F20FFF703FB05E0FFF70DFB0DF80400F0
:10116000601CC4B2032CF7DBFFF74EFA9DF8023087
:101170009DF801209DF800101CA001F053FB38BD24
:10118000737461727420636869702065726173653D
:101190000A000000636869702065726173652064ED
:1011A0006F6E6521212121212121212121210A0088
:1011B00021217761726E696E67216D616E7566615E
:1011C000637475726572206572722121210A0000B4
:1011D0006D656D6F72795F747970655F6361706161
:1011E000636974793A307825780A00006A65646525
:1011F00063203A2578202578202578200A000000F1
:1012000058480068704700F00301574A52F821100F
:10121000544A11607047014601F00300524A52F8E7
:10122000200070475148006849F64041B0FBF1F09A
:1012300070474E480068400049F64041B0FBF1F06D
:1012400070474A48006849F64041B0FBF1F000EBB6
:101250004000400070474548006849F64041B0FBF7
:10126000F1F000EB8000800070474048006849F6CC
:101270004041B0FBF1F03221484370473B480068E1
:1012800049F64041B0FBF1F000EB800000017047EF
:101290003648006849F64041B0FBF1F0642148430C
:1012A00070473248006849F64041B0FBF1F0C82170
:1012B000484370472D48006849F64041B0FBF1F0C3
:1012C0008910484370472A480068401C2849086034
:1012D000704700202649086070472548006870471D
:1012E00024480068401C23490860704700202149B9
:1012F000086070471F48006870471F480068401C1E
:101300001D490860704700201B49086070471A4853
:101310000068704718480068142801D301207047FE
:101320000020FCE701201549087070470020134990
:10133000087070471148007870471148006820F025
:101340000100401C0E49086070470D480068C0F35A
:10135000000070470A48006820F001000849086052
:10136000704700000C0000102000001080000010EA
:101370001000001014000010180000101C000010D5
:101380003000001010B5002807DACA06140EA14A72
:1013900000F00F031B1FD45403E0CA06130E9E4A2D
:1013A000135410BD70B505460C461DBB9B48006824
:1013B00040F002009A49C1F8C4004FF000004FF01D
:1013C000402108674FF0020048604FF001000860BC
:1013D0004FF000008860C860084684614FF0030049
:1013E00048614FF00100486000F008F91021012029
:1013F000FFF7C8FF012D24D18848006840F00400A1
:101400008749C1F8C4004FF00000864908674FF0D3
:10141000020048604FF0010008604FF00000886053
:10142000C860084684614FF0030048614FF0020035
:1014300000F0E4F830210220FFF7A4FF01207949F1
:101440004860022D22D17548006840F4800074493C
:10145000C1F8C4004FF00000734908674FF0020064
:1014600048604FF0010008604FF000008860C860DD
:10147000084684614FF00300486100F0BFF848213E
:101480000320FFF77FFF012067494860032D23D128
:101490006248006840F400006149C1F8C4004FF0A0
:1014A0000000624908674FF0020048604FF00100F9
:1014B00008604FF000008860C860084684612846D4
:1014C00048614FF0040000F099F850210420FFF724
:1014D00059FF01205549486070BD20B901214FF0E6
:1014E0004022516010E0012803D101214D4A516092
:1014F0000AE0022803D101214B4A516004E003288D
:1015000002D10121494A5160704720B900214FF0B2
:101510004022516010E0012803D10021414A51606E
:101520000AE0022803D100213F4A516004E0032869
:1015300002D100213D4A51607047014631B94FF058
:101540004022506840F00200506016E0012905D1A9
:10155000344A506840F0020050600EE0022905D184
:10156000314A506840F00200506006E0032904D17F
:101570002E4A506840F0020050607047F8B90222CD
:101580004FF040235A600022DA60294A126892081C
:101590004FF47A73B2FBF3F2521E4A434FF04023EA
:1015A0009A61FF221A6004225A6101225A6000BF28
:1015B0004FF04022526812F0010FF9D11DE00128CE
:1015C0001BD10222174B5A600022DA60184A1268B7
:1015D00092084FF47A73B2FBF3F2521E4A43114B56
:1015E0009A61FF221A6004225A6101225A6000BFE8
:1015F0000C4A526812F0010FFAD1704700F01F0236
:101600000121914042094FF0E02303EB8202C2F82E
:101610000011704718ED00E000E400E0C4C00F4086
:1016200000C00F4000800040000009400040094019
:1016300080000010D14A12684FF0010303FA00F352
:1016400042EA0302CE4BC3F844221A46C2F84802CB
:10165000C2F84C1200BFCB4A126812F4807FFAD055
:101660004FF48072C84B1A6070470146C74801604A
:1016700000BFC448006810F0200FFAD02020C24AF2
:101680001060BF48D0F81402C0B27047BF4A106063
:1016900000BFBC4A126812F0100FFAD01022BA4BE9
:1016A0001A6051B1B94A116000BFB64A126812F00F
:1016B000100FFAD01022B44B1A60704710B50024F6
:1016C0000021B348FFF7E2FFB248FFF7CEFF044620
:1016D000B048FFF7CAFF04EB002084B2204610BDDB
:1016E00030B504460D460DB144F080044FF48070CF
:1016F00040EA0441A848FFF7C9FF30BD10B50446D1
:101700004FF4807040EA0441A448FFF7BFFF10BDCA
:1017100010B504464FF4807040EA0441A048FFF73A
:10172000B5FF10BD10B504464FF4807040EA044187
:101730009C48FFF7ABFF10BD00B500219948FFF7AB
:10174000A5FF9948FFF791FF00BD30B50446250479
:1017500045F4A0600021FFF799FF45F40070FFF702
:1017600084FF30BD70B50446002604F14000050436
:1017700045F4A0600021FFF789FF45F40070FFF7F2
:1017800074FF06460120A04088490860304670BDBD
:10179000F0B504460D4604F1400006042F0447F45A
:1017A000807146F4A060FFF771FFF0BD00B5002125
:1017B0007F48FFF76BFF7F48FFF757FF00BD00B57D
:1017C00000217D48FFF762FF00BD00B50020FFF754
:1017D000A9FF00BD00B50120FFF7A4FF00BD10B5B3
:1017E000FFF7F3FF002400E0641CB4F5003FFBD3D7
:1017F000FFF7F0FF10BD2DE9F04705460C46914676
:1018000000260027B246B0466810012101EB800097
:101810006A490860284605EBD0714FEA6101B5EBD3
:10182000410105D100BF6648006810F4406FFAD04E
:1018300063480068C0F30908C84500D9C8460027B6
:1018400011E06048066804F8016B4FEA162004F8BE
:10185000010B4FEA164004F8010B4FEA166004F83A
:10186000010B07F10107B7EB980FEAD308F0030A61
:10187000BAF1000F0CD0534806684FF0000705E09E
:10188000F80026FA00F004F8010B7F1C5745F7D347
:1018900040203D4908602846FFF757FFFFF786FFC5
:1018A00000203749C1F8280208F0FF00BDE8F087A2
:1018B0002DE9F04381460C46154600260027B04628
:1018C0004FEA6900022101EB80063C4806602C4883
:1018D000C0F824524FEAA5084FF001071AE014F8A7
:1018E000016B14F8011B06EB012614F8011B06EB33
:1018F000014614F8011B06EB01663348066000BF81
:1019000032480068C0F30900A5EB8701C9B28842DC
:10191000F6D17F1C4745E2D92846E91705EB9171BE
:101920008910A5EB8108B8F1000F12D0002600271E
:1019300005E02078F90088400643641C7F1C474579
:10194000F7D32148066000BF204800688005800D5D
:10195000FAD145B100BF0B48006810F0800FFAD0F3
:101960008020094908604846FFF7EFFEFFF727FF90
:101970000020124908602846BDE8F08344C20050A8
:1019800000C0005000C2005008C2005010C20050F9
:101990000005FD000002FD000005D0000005D80094
:1019A0000005F3000005FE000002FE0038C20050F2
:1019B0000005F2000002F2000005FA0028C2005003
:1019C00020C2005018C200501CC2005024C2005057
:1019D00010B540210020FFF72DFE40210120FFF728
:1019E00029FE10210220FFF725FE10210320FFF71A
:1019F00021FE40210420FFF71DFE40210520FFF7B6
:101A000019FE10BD10B50320FFF7ACFE10BD10B5D8
:101A10000220FFF7A7FE102280490220FFF7EBFE0D
:101A200004463CB17E48006820F4806000F5806088
:101A30007B49086010BD10B50520FFF793FE10BD6F
:101A400010B50420FFF78EFE102274490420FFF722
:101A5000D2FE04463CB17248006820F4006000F5F4
:101A600000606F49086010BD10B56E48046814F03E
:101A7000010F01D000F082FB14F0020F01D000F042
:101A800039FC14F0040F01D0FFF7C1FF14F0080F68
:101A900001D0FFF7B7FF14F0100F01D0FFF7D0FF10
:101AA00014F0200F01D0FFF7C6FF10BD10B500F0F5
:101AB00078F9FFF78DFF10BD7047704710B500F043
:101AC0004AF9002056490880FFF7F8FDA0F52541A6
:101AD0000F3901D0012010BD00F063F9FFF778FF46
:101AE0000020FFF715FE00F04FF9FFF778FE002009
:101AF000F1E710B54A480068C0F3C00058B1FEF7DE
:101B00008FFB4748006820F008004549086000F056
:101B100042FCFEF789FB42480068C0F3000048B170
:101B2000FEF77EFB3E48006820F001003C4908605B
:101B3000FEF77AFB3A480068C0F3400058B1FEF760
:101B40006FFB3748006820F0020035490860FEF757
:101B50006BFBFFF7B1FF32480068C0F3800058B15B
:101B6000FEF75EFB2E48006820F004002C49086058
:101B7000FEF75AFBFFF7A1FF10BD70B5002400254A
:101B80002748006820F020002030254908602648BA
:101B9000046814F0080F26D0FFF7CEFD054615F0B7
:101BA000100F08D0FFF782FF1D48006820F00100E9
:101BB000401C1B49086015F0080F06D01848006843
:101BC00020F00200801C1649086015F0020F06D0B4
:101BD0001348006820F00400001D11490860082027
:101BE0001249086010E014F0020F04D0FFF73CFF28
:101BF00002200E49086014F0040F04D0FFF734FFF0
:101C000004200A49086000BF0548006820F0200051
:101C10000349086070BD40F213107047880000103F
:101C20003C00001030C2005000C2005008C20050FA
:101C300010B56948006810F4007F10D00020674993
:101C4000086000BFFEF7ECFAAA20654908604FF073
:101C500055006449C1F8AC00FEF7E6FA00BF002069
:101C60005E49086000BFFEF7DBFAAA205C49086005
:101C70004FF055005B49C1F8AC00FEF7D5FA00BF44
:101C800023205949086000BFFEF7CAFAAA20544928
:101C900008604FF055005349C1F8AC00FEF7C4FA94
:101CA00000BF01204D49086000BFFEF7B9FAAA2025
:101CB0004B4908604FF055004A49C1F8AC00FEF7A7
:101CC000B3FA00BF00BF4448006810F4806FFAD038
:101CD00003204249086000BFFEF7A2FAAA2040494B
:101CE00008604FF055003F49C1F8AC00FEF79CFA80
:101CF00000BF10BD10B5FEF793FA3C48406820F0D5
:101D000070503A4948600846406840F0A05048602A
:101D10000846C068364908403449C8600846C0686B
:101D2000344908433149C8600846006920F440201E
:101D300008610846006940F4802008610846806B0D
:101D400020F0405088630846806B40F00050886364
:101D5000FEF76AFA10BD10B512242748006840F05B
:101D600000402049C1F8C400FFF762FF2348046027
:101D700000BF2248001D00682040A042F9D1FFF7B3
:101D8000B9FF10BD7047704700B50020FFF7FAFF9C
:101D9000002000E0401CB0F5003FFBD3FFF7F3FF4D
:101DA00000BD04200121164A11601649C1F8040241
:101DB0004FF00001144A11604FF03F001149C1F883
:101DC0003402D1F8401221EA0001104A11604FF0AC
:101DD00000410F4A11607047A8C00F40A0C00F40DB
:101DE000ACC00F4000C00F40A4C00F4000C0024074
:101DF000CFFFFFCF10000020C4C00F40F4CF005031
:101E000008C2005000C000502CC2005040C2005018
:101E1000C0C10F4010B501210020FFF7B9FC01211E
:101E20000846FFF7B5FC10BD10B5FFF7F3FF10BD76
:101E300010B50020FFF762FC10BD10B50120FFF7C0
:101E40005DFC10BD70B505460C46402C04DC2246F6
:101E500029460120FFF72CFD70BD70B504460D46E4
:101E60000020FA49488108460089A84201DD084659
:101E70000581F648C4600089402816DBF3484022FB
:101E8000C1680120FFF714FDF04840894030EF4958
:101E90004881FEF7C5F9EE48006820F0C0004030E8
:101EA000EB490860FEF7C0F917E0E8480089C2B2C4
:101EB00021460120FFF7FCFCE4484089E3490989F9
:101EC0000844E2494881FEF7ABF9E148006820F098
:101ED000C000DF490860FEF7A7F970BDF8B500241F
:101EE000002000900026D948007800F01F05A5B911
:101EF000D7480068C0F30010012803D103208DF8F3
:101F0000000002E001208DF8000000208DF80100A3
:101F100002216846FFF796FF37E0012D09D1002026
:101F20008DF800008DF8010002216846FFF78AFF56
:101F30002BE0022D27D1C548808800F00304C34858
:101F4000808810F0800F07D0012101EB4401C8B256
:101F5000FFF7FBFB064604E06106080EFFF7F5FB02
:101F6000064616F0020F03D001208DF8000002E0B3
:101F700000208DF8000000208DF801000221684645
:101F8000FFF760FF01E0FFF745FFF8BD70B50024E3
:101F9000AE48007800F01F0595B9AC48408801288C
:101FA0000ED1FEF73DF9AA48006820F01000A849BC
:101FB0000860FEF739F900210846FFF743FF21E0EA
:101FC000022D1DD1A1484088D0B9A048808800F0DA
:101FD00003049E48808810F0800F07D0012101EB98
:101FE0004401C8B20021FFF7D3FB04E06106080EEC
:101FF0000021FFF7CDFB00210846FFF723FF01E09A
:10200000FFF708FF70BD70B500249048007800F01D
:102010001F059DB98D48408801280FD1FEF700F9B2
:102020008B48006820F01000103089490860FEF7E6
:10203000FBF800210846FFF705FF21E0022D1DD126
:1020400082484088D0B98148808800F003047F48E6
:10205000808810F0800F07D0012101EB4401C8B245
:102060000121FFF795FB04E06106080E0121FFF74F
:102070008FFB00210846FFF7E5FE01E0FFF7CAFEEF
:1020800070BD10B57149498801F07F000121FFF74B
:1020900027FB00210846FFF7D5FE10BD10B56B48A1
:1020A0004088040A012C04D112216A48FFF7D5FEAA
:1020B00010E0022C0CD16548C0882E2802D92E20B1
:1020C0006249C8806148C1886348FFF7C6FE01E0E5
:1020D000FFF7A0FE10BD08B55D480068C0F3002002
:1020E000009001216846FFF7ADFE08BD10B55748C6
:1020F000408880B900210846FFF7A4FEFEF790F85B
:102100005348006820F4807051490860FEF78CF84D
:10211000FFF793FE1AE04D484088012814D10021B2
:102120000846FFF78FFEFFF783FEFFF786FEFEF7F8
:1021300077F84748006820F4807000F580704449C3
:102140000860FEF771F801E0FFF764FE10BD08B506
:102150000020009001216846FFF774FE08BD10B50D
:102160003A48408838B93948808820B90021084663
:10217000FFF768FE01E0FFF74DFE10BD7CB50025BE
:1021800000240020FFF7EEFA054615F0040F78D082
:1021900000202E490881488108226946FFF72BFB61
:1021A00008280ED001210020FFF7F2FA012108468D
:1021B000FFF7EEFA2648006820F0C00024490860C6
:1021C0007CBD9DF80000214908709DF80100487011
:1021D0009DF802109DF8030001EB00201B49488088
:1021E0009DF804109DF8050001EB00201749888038
:1021F0009DF806109DF8070001EB00201349C880E8
:102200000846C08808810846007810F0800F0DD07D
:102210000F48006820F0080008300D4908600846A3
:10222000006820F0C0004030086061E00748C088C6
:10223000A0B90748006820F0080008300449086089
:102240000846006820F0C000086051E0D800001087
:102250003C00001002460000144600005848C088A8
:1022600040280FDD5748006820F0C000554908603D
:1022700001210020FFF78CFA01210846FFF788FAB8
:1022800036E007E04F48006820F0C00080304D493C
:1022900008602DE04B480068C0F38110022821D16E
:1022A000474842891030111840220020FFF7A3FA56
:1022B000044643484089204441494881402C04D188
:1022C000084640890989884212DB3E48006820F0B0
:1022D000080008303B4908600846006820F0C0004C
:1022E000086005E03748006820F0C0003549086004
:1022F00000BF65E710B53248008931494989401A65
:1023000004B20120FFF72EFA2E480068C0F38110B6
:10231000012804D000210846FFF794FD10BD402C91
:1023200015DB2748C068264A5289811840220120BF
:10233000FFF7BEFA224840894030214948812148B0
:10234000006820F0C00040301E49086021E0A4B1C0
:102350001B48C0681A4A52898118E2B20120FFF76F
:10236000A7FA174840892044154948811548006854
:1023700020F0C000134908600BE054B90022114658
:102380000120FFF795FA0F48006820F0C0000D49C2
:10239000086000BFC2E770B5002400250848007837
:1023A00000F060040648407800F00F0524B90649A3
:1023B00051F82500804701E0FFF72CFD70BD0000BB
:1023C000D80000103C0000104000001000207047B2
:1023D00020B1012803D002280AD104E000BFA5499A
:1023E000A54A116005E0A349C91EA34A116000E097
:1023F00000BF00BF704770B504460025FDF710FF11
:10240000204600F087FC0546FDF70EFF284670BD0C
:1024100010B50446FDF704FF204600F0AAFCFDF7C6
:1024200003FF002010BD2DE9F047044689461646FB
:10243000332C03D94FF0FF30BDE8F087FDF7F0FEF5
:10244000102C10D3A4F110056F0905F01F0801200E
:1024500000FA08F04FF0E02101EB8701C1F800011C
:1024600086496E5429E0042C04D0052C0BD0062C90
:102470001BD111E080481830006840F480307E495C
:102480001831086012E07C481830006840F40030D1
:1024900079491831086009E077481830006840F43D
:1024A000802075491831086000E000BF00BF042C8F
:1024B00003D3251F70490C316E54FDF7B5FE002083
:1024C000BAE72DE9F0410446332C03D94FF0FF3031
:1024D000BDE8F081FDF7A4FE102C10D3A4F1100587
:1024E0006E0905F01F070120B8404FF0E02101EB15
:1024F0008601C1F880010020604968542AE0042C5C
:1025000004D0052C0BD0062C1BD111E05A481830F2
:10251000006820F4803058491831086012E05648AD
:102520001830006820F4003053491831086009E081
:1025300051481830006820F480204F491831086055
:1025400000E000BF00BF042C04D3251F00204A492F
:102550000C316854FDF768FE0020B9E72DE9F04121
:102560000446332C03D94FF0FF30BDE8F081102C26
:1025700002D24FF0FF30F8E7FDF752FE102C0DD3DA
:10258000A4F110056E0905F01F070120B8404FF0B7
:10259000E02101EB8601C1F8800123E0042C04D086
:1025A000052C0BD0062C1BD111E0334818300068E5
:1025B00020F4803030491831086012E02E4818307D
:1025C000006820F400302C491831086009E02A48DE
:1025D0001830006820F4802027491831086000E096
:1025E00000BF00BFFDF720FE0020BEE72DE9F0414F
:1025F0000446332C03D94FF0FF30BDE8F081FDF7DE
:102600000FFE102C0DD3A4F110056E0905F01F0765
:102610000120B8404FF0E02101EB8601C1F8000134
:1026200023E0042C04D0052C0BD0062C1BD111E088
:1026300011481830006840F480300F4918310860A4
:1026400012E00D481830006840F400300A49183193
:10265000086009E008481830006840F48020064906
:102660001831086000E000BF00BFFDF7DDFD00206D
:10267000C3E700000400FA050CED00E000E400E010
:1026800010B50120FFF7A4FE10BD10B555485649FE
:102690000860FDF7C5FD45F23A0054490860002086
:1026A000534908605149C1F8AC01C1F8C801084656
:1026B000D0F888004FF00101B1EB106F0BD1012071
:1026C0004C4908604FF0AA004849C1F88C004FF00F
:1026D0005500494908604FF00000464908604FF036
:1026E000AA004249C1F88C004FF0550042490860E9
:1026F00000BF4248006810F0407FFAD140480068AF
:1027000000F0040040F020003849C1F8A00100BFEB
:102710003B48006810F0400FFAD0012039490860AA
:102720004FF00B003149C1F884004FF0AA00324944
:1027300008604FF0550008604FF001002D49086017
:102740004FF0AA002C4908604FF05500086000BF08
:102750002A48006810F0807FFAD002202A490860D9
:1027600000BF2648006810F0806FFAD000BF2348F1
:102770000068C0F30E000B2805D020480068C0F3A5
:1027800007400028F3D14FF003001A4908604FF0CA
:10279000AA001649C1F88C004FF055001649086090
:1027A00000BF1648006810F0007FFAD002201749D9
:1027B00008604FF000000D49C1F8A0004FF0AA00DA
:1027C000134908604FF05500086045F23A00074988
:1027D000086010484FF0E021C861FDF725FDFFF7C4
:1027E000F5FD10BD4446000008ED00E000C00F40BC
:1027F000A8C10F4080C00F408CC00F4088C00F4060
:10280000A0C10F400CC10F4004C10F4008C10F40D0
:10281000ACC00F4000A60E0010B504462046FDF7E0
:102820006FFE10BD0FB408B503A800900648009ACB
:10283000029900F0C5FA0448FFF7EEFF002000906F
:1028400001B05DF814FB00002801001000202021D9
:102850007A4A116000BF7949096811F0400FFAD037
:102860000721774A11607749774AC2F8A8114FF0DB
:102870000001764A11604FF00101754A11604FF076
:102880000F01744A11604FF00101A2F104021160BE
:102890004FF0AA01704A11604FF055016A4AC2F820
:1028A0008C106B490968022906D000BF6B49096882
:1028B00011F0806FFAD004E0002000E0401C642892
:1028C000FCD90321664A11604FF0AA015E4AC2F8A2
:1028D0008C104FF05501604A11604FF00701614ABA
:1028E00011606149614A11604FF00001604A116056
:1028F00043F23A01544A1160704758480068C0F3E7
:102900000160032868D15248006810F0030006D027
:10291000012823D002283FD003285CD100E000BF6B
:102920004E480068C0F30E0000F101004FEA40017C
:102930004548D0F88800C0F3074000F10100B1FB22
:10294000F0F04C4900FB01F03D490968C9B201F1C2
:102950000101B0FBF1F0484908603CE03F480068E5
:10296000C0F30E0000F101004FEA40013648D0F8F4
:102970008800C0F3074000F10100B1FBF0F03F49CF
:1029800000FB01F02E490968C9B201F10101B0FB59
:10299000F1F0394908601EE030480068C0F30E00CD
:1029A00000F101004FEA40012748D0F88800C0F349
:1029B000074000F10100B1FBF0F04FF4FA4100FBD9
:1029C00001F01F490968C9B201F10101B0FBF1F042
:1029D0002949086000BF2FE01D48006810F003007F
:1029E00006D0012810D0022819D0032823D100E0F6
:1029F00000BF13480068C0B200F101001D49B1FBDF
:102A0000F0F01D49086016E00D480068C0B200F102
:102A100001001A49B1FBF0F0174908600BE00848C3
:102A20000068C0B200F101004FF4FA41B1FBF0F0D0
:102A30001149086000BF00BF70470000A0C10F40EF
:102A400004C10F404010110000C00F40ACC10F4046
:102A50000CC10F4084C00F408CC00F4088C00F4095
:102A600080C00F4008C10F40DEF7EFEFC4C00F4039
:102A7000C8C10F4000093D0080000010001BB700D6
:102A80000948804709480047FEE7FEE7FEE7FEE702
:102A9000FEE7FEE7FEE7FEE7FEE7FEE7044805493E
:102AA000034A054B704700004D280000CD00000090
:102AB00008030010080500100803001070B5044654
:102AC0000E46002506E014F8012B294603A0FFF767
:102AD000A9FE6D1CB542F6D370BD00006275665B41
:102AE00025645D3A3078253032780A00704729A095
:102AF000FFF798FE40222B492820FFF794FCFEF7B1
:102B0000DDFF08B100BFFEE71CE0FEF7F2FF26483C
:102B10000068C0F30020012814D123480068C0F3E6
:102B2000802001280ED1FDF77BFB1F48006820F4B0
:102B300080601D4908600A221C490320FEF7B8FE88
:102B4000FDF772FBE1E710B5FDF7FFFC10BD10B516
:102B5000FFF7D3FE4FF41650FDF76AFC0020FDF797
:102B60006AFDFDF7E2FBFEF7A5FB044621460020C7
:102B7000FEF718FC0EA0FFF755FE14A0FFF752FE5B
:102B800018A0FFF74FFE1DA0FFF74CFEFFF7DBFF7D
:102B900010BD000075736220696E69742121210ADD
:102BA000000000007B1B00003C00001088000010AB
:102BB0000A7E7E7E7E7E7E7E7E7E7E7E7E7E7E7EA9
:102BC0007E7E7E7E7E7E7E0A000000007E7E7E7E91
:102BD0007E7E7E7E626C61636B20626F787E7E7E1D
:102BE0007E7E0A007E7E7E7E7E7E7E7E7E7E7E7EF7
:102BF0007E7E7E7E7E7E7E7E7E7E0A00696E69742B
:102C000020646F6E65210A0010B50020FEF77DFC80
:102C100010BD10B50020FEF760FC10BD10B52C48AB
:102C2000FDF7B0FC03212A48FFF748FF10BD10B59F
:102C300028A0FFF7F7FDFEF72AFA2C490860244880
:102C4000FDF793FC03212248FFF738FF10BD10B5B4
:102C500027A0FFF7E7FD01221D491046FDF7B2FC52
:102C60004FF480711A48FFF729FF10BD70B5044674
:102C70004FF44036002522464FF48071144800F08E
:102C8000B1F83046FEF769F9E1B23046FEF766F872
:102C90003046FEF7EAF8054629461AA0FFF7C2FDBE
:102CA0001BA0FFF7BFFD70BD10B57C20FDF7F9FD3F
:102CB00010BD70B51425002403E02046FFF7D6FFB1
:102CC000641C142CF9D370BD10B5FFF7F2FF10BDD2
:102CD000A80100100A0A3D3D3D3E3E6765745F73E2
:102CE0006563746F725F6E756D0A0000840000107A
:102CF0007E7E7E666C617368207265616420746597
:102D000073740A00646174613A25640A000000006B
:102D10000A00000070B5064600F06CF8056806F180
:102D20000B0020F00704B4429CBF002070BD2B466E
:102D30006A68BAB11068A04210D304F10801884251
:102D40003CBF5068586007D3516810194160116842
:102D5000091B016058601460101D70BD1346526855
:102D6000002AE7D12146284600F04AF80028DED1A3
:102D700070BD70B50446051F00F03CF80068002CDB
:102D800014BF446870BD002C18BFA54284BF204604
:102D90006468F8D801680A18AA4218BF456003D1D0
:102DA0002A6805461144016028684119A1421CBFE8
:102DB0006C6070BD6168696021680844286070BDFE
:102DC0001CB50C46064B7B4469460090204600F03B
:102DD0001CF904460020694600F02AF920461CBD73
:102DE0006702000002F0FF0343EA032242EA0242C4
:102DF00000F010BB00487047B002001070477047E9
:102E000038B504460A4600206946AFF30080002822
:102E100008BF38BD02460099204600F01FFB012084
:102E200038BD012000F031BEF8B5AFF30080054693
:102E300000200C46102000BF0646A819A0420DD95C
:102E4000324669460020AFF30080070008BF00F05B
:102E50001CFE0098A04218BF0546C419FFF7CAFF20
:102E600005600746F01D20F007004619284600F0CF
:102E70000AF8B44208BFF8BDA21B31463868BDE865
:102E8000F84000F0EBBA00210160C0E90110704782
:102E90001020704770B5044685690068C10601D5E9
:102EA000302600E02026C00708D070BDD4E90121FB
:102EB00030469047206A00F1010020626D1EF5D572
:102EC00070BD70B5044685690068C00708D170BD43
:102ED000D4E9012120209047206A00F101002062FE
:102EE0006D1EF5D570BD09684A0501D540B2704721
:102EF000C905FCD500B2704709684A0501D5C0B2C2
:102F00007047C905FCD580B2704770B505460C46C0
:102F1000012A05D02868800600D5EA69002302E06E
:102F2000012305E05B1C934202D2E05C0028F9D14A
:102F3000A869E618C01AA861286A184428622846B9
:102F4000FFF7A8FF04E0D5E9012114F8010B904731
:102F5000B442F8D32846FFF7B4FF70BD2DE9F04125
:102F60000746002510687529394616A411D0FFF7C9
:102F7000BAFF002803DAC0F1000013A407E03968A3
:102F80008A0701D511A402E0490704D510A4012540
:102F900001E0FFF7B1FF00210A2307F1240607E053
:102FA000B0FBF3F203FB1200303070541046491CA2
:102FB0000028F5D12B4622463846BDE8F04100F006
:102FC000ACBA0000000000002D0000002B00000043
:102FD0002000000011680268006A530501D50870DE
:102FE0000BE0D30501D5088007E0130603D5C2170F
:102FF000C1E9000201E052060860012070470000AC
:1030000001694A1C02610878704700B58FB0CDE9AC
:1030100001310021059105497944CDE9031011469C
:10302000684600F02FF90FB000BD0000E5FFFFFF7C
:103030000A6802F8010B0A60704700002DE9FF5F83
:1030400004468A461546DFF8AC80F8440027D8E9E4
:1030500000103E46CDE9001011E03AF816106A461D
:1030600002A800F0F2FC411C07D02168890603D5B4
:10307000E269391891420ED8074406F1010620682A
:10308000800602D5E069B84205DDAE42E5DB3AF8DC
:1030900016000028E1D1A069C01BA0612046FFF7FF
:1030A000F9FED8E90010CDE90010002016E03AF84A
:1030B00018106A4602A800F0C8FC8146401C0BD0DC
:1030C00000250DF1080B05E0D4E901211BF80500EE
:1030D00090476D1C4D45F7D308F10100B042804682
:1030E000E5DB206A384420622046FFF7EAFEBDE8AF
:1030F000FF9F0000C21600002DE9F0418046D21D5E
:1031000022F007020026D2E90002F52914A512D008
:10311000002A06DA0023D0EB030063EB020211A5BC
:1031200008E0D8F800108B0701D50FA502E0490789
:1031300001D50EA501261146002408F1240704E05C
:1031400000F0A6F930323A55641C50EA0102F7D17A
:1031500033462A4621464046BDE8F04100F0DDB93D
:10316000000000002D0000002B00000020000000E7
:1031700030B4002100F124040CE002F0070505F151
:1031800030054FEAD20242EA4372655401F101016F
:103190004FEAD30352EA0305EFD10468002310A2DB
:1031A000250708D504F020040C4304D0C46901238A
:1031B0000CA2641EC46130BC00F0AFB910B5044667
:1031C00021461068FFF798FE02462046BDE81040F1
:1031D0000023CDE7D21D22F00701D1E90023C7E784
:1031E0000000000030000000F0B40F46016809053F
:1031F00002D5234C7C4402E0214C7C440E34002157
:1032000000F124050BE002F00F064FEA1212A65D52
:1032100042EA03724FEA13136E5401F1010152EABC
:103220000306F0D1224604680023240704D5702F3A
:1032300005D009B111320223F0BC00F06EB9103292
:103240000123F9E770B504460D4621461068FFF7E3
:1032500053FE024629462046BDE870400023C3E7DE
:10326000D21D22F00703D3E90023BDE703681268EB
:1032700043F0200303600823C3610023B4E7000088
:10328000201500002DE9F05F044689464FF0000A42
:10329000DFF878B1FB44C0F820A02046E1688847F9
:1032A000002875D0252806D0D4E901219047206A4E
:1032B000401C2062F1E700265F462046E16888470F
:1032C0002028054608DB312D06D207EB050010F853
:1032D000200C08B10643F0E7B00701D526F004063C
:1032E000C4F81CA00027C4F818A02A2D09D028462D
:1032F00001F04BF938B304EB8708303DC8F818509B
:1033000019E059F8041B204604EB87029161E1683B
:103310008847012F054618D1E069002820DA26F0F9
:1033200020061DE0D8F8180000EB800005EB4000F7
:103330003038C8F818002046E1688847054601F093
:1033400024F90028EED1012F0AD02E2D08D12046D5
:10335000E16888477F1C0546022F46F02006C4DB43
:10336000A069002803DA404246F00106A061F00798
:1033700001D026F010066C2D0BD0682D09D04C2DF5
:1033800039D06A2D35D0742D35D07A2D33D016E052
:1033900038E0E1682F4620468847B842054609D103
:1033A0006C2F26D04FF48060E168064320468847A2
:1033B000054604E06C2F1AD04FF4807006430DB31D
:1033C000A5F14100192802D8203546F400664A4686
:1033D0002946204626604E46FCF7B2FE80B1012801
:1033E0000BD0F61D26F0070000F1080955E7402034
:1033F000E4E78020D8E70020D6E706F104094CE78F
:10340000284651E7206ABDE8F09F0000A81400009C
:103410004FF000020429C0F0128010F0030C00F0FD
:103420003D83CCF1040CBCF1020F18BF00F8012B56
:10343000A8BF20F8022BA1EB0C0100F02FBB5FEA24
:10344000C17C24BF00F8012B00F8012B48BF00F815
:10345000012B704700487047A802001003464068DF
:103460008C46002818BF814284BF03464068F8D8C4
:1034700018681844884207D00CF1030020F00700B8
:10348000001D411A521A0146081D0A60FFF771BC5F
:1034900030B5B0F10A024FEA900E71F100034EEA26
:1034A000817EB0EB0E0061EB91014FEA101E4EEAF7
:1034B000017E10EB0E0041EB11114FEA102E4EEA87
:1034C000016E10EB0E0041EB11214FEA104E4EEA57
:1034D000014E10EB0E0041EB1141401841F100018B
:1034E0004FEAD00040EA41704FEAD10110EB80056D
:1034F0004FEA810444EA907444EB01046D1944EBF3
:103500000404521BA3414FF0000348BF0A3200D508
:1035100030BD401C41F1000130BD2DE9F0470D46A2
:1035200004469246994600F124080168880604D5AD
:10353000E06921F01001216000E00120A84202DDD5
:10354000A0EB050700E00027A16907EB050202EBED
:103550000900A1EB0000A0612068C00602D420464B
:10356000FFF798FC002608E0D4E901211AF80600CC
:103570009047206A401C761C20624E45F4DB206890
:10358000C0060AD52046FFF785FC06E0D4E90121F4
:1035900030209047206A401C2062381EA7F10107A6
:1035A000F4DC07E0D4E9012118F805009047206A0F
:1035B000401C2062281EA5F10105F3DC2046FFF720
:1035C00080FC2068000602D50220BDE8F0870120BB
:1035D000FBE770472DE9FF4F0C461E464FF0FF37C3
:1035E0008BB0D2E90001DDF860800A908A46C1F311
:1035F0000A5505B93D46002108464FF00000BAF1D2
:10360000000F00F4400005DA00EB80004FF44001A9
:1036100001EA50004FEA9059B9F1010F00DDB946B7
:103620000A9850EA4A000FD044F61050A5F2FF3530
:1036300045432F14B8F1000F1FD07542291E1FDD1E
:103640004846C9F100021CE0B8F1010F4FF000003C
:1036500001D1F24307E0302101E02154401CB04287
:10366000FBDB30460022002121540B99C1F8088071
:10367000C1E900200FB0BDE8F08FBD1B6D1CDDE778
:103680004A4600DA694206A800F09EFA06AB07CB6C
:1036900003AB07C350460A9900F0A8FB8DE807006A
:1036A000A0F500501F3800900398002D09DD42F26C
:1036B0001F014A46084403A90390684600F007FE2C
:1036C00008E0A0F500504A461F3803A90390684659
:1036D00000F011FE8DE807000004000C03D04FF04D
:1036E000FF30410800E01046B8F1000F03D000227F
:1036F000009215461FE0751E06D4FFF7C9FE02F1C1
:10370000300262556D1EF8D5B3460122084302D03F
:1037100000227F1C04E02078302801D100227F1E87
:10372000002A099786D01DE0112D07DAFFF7B0FEB9
:10373000303262556D1C50EA0102F5D108430FD1B9
:103740000021681E05E0235C625C6354491C22541E
:10375000401E8142F7DBAB46A81B401E099001E0EA
:10376000009848B1002004F80B000B98099AC0F8A3
:103770000880C0E9002B7DE711264FF0000859E7CB
:103780002DE9F04F88460446D21D22F0070191B082
:10379000D1E90001CDE90A0100F0E3FE02460B98F1
:1037A000C00F01D02D2007E02068810701D52B2014
:1037B00002E0202101EAC000032A099001D0072A73
:1037C00005DB03464146204600F0BEF90EE12068C5
:1037D000800601D5E06900E00620B8F1650F81465A
:1037E00006D0B8F1660F18D0B8F1670F72D132E089
:1037F0000020B9F1110F009001DB112301E009F164
:1038000001030AAA01A90CA8FFF7E4FEDDE90C7088
:10381000002609F10105834648E001204B4600904F
:103820004FF000470AAA01A90CA8FFF7D3FEDDE973
:103830000C050E990026AB4619B909F1010100EB00
:103840000105B9EB050003D4C0F1FF3609F101050C
:10385000A5EB09002BE0B9F1010F01DA4FF00109E6
:103860000020B9F1110F0090484601DD112300E05E
:1038700003460AAA01A90CA8FFF7ACFEDDE90C700B
:103880004D4600268346206800070AD4AB4500DA7F
:103890005D4601A8012D04DD411911F8011C3029F4
:1038A00007D04F4502DA17F1040F04DA01208246EF
:1038B00010E06D1EEEE7002F02DCED1B3E4403E03E
:1038C000781CA84200DD0546A7EB060000F1010ABE
:1038D0004FF000472068000703D4AA4501DB4FF0F2
:1038E000FF3A0021B7F1004F0DF143088DF8431066
:1038F00022D002202B23002F01DA7F422D230A221F
:10390000011EA0F1010000DC4FB197FBF2F102FBB8
:10391000117C0F460CF1300C08F801CDF0E7A8F14E
:10392000010003702168090501D5452100E06521EA
:10393000A0F1010800F8011C09980FA9A1EB0807E4
:1039400007F1070700B1012000EB050101EBEA7068
:10395000A1693844A1EB0000A0F10100A06120683A
:10396000C00602D42046FFF795FA099830B1D4E991
:1039700001219047206A00F1010020622068C00602
:1039800020D52046FFF786FA1CE0002E04DBB34565
:1039900002DD01A8805D00E03020D4E901219047DC
:1039A000206A761C401CBAF1010A20620AD100F09C
:1039B000C7F8C0680168405CD4E901219047206ADB
:1039C000401C2062281EA5F10105DEDC07E0D4E9D9
:1039D000012118F8010B9047206A401C2062381E14
:1039E000A7F10107F3DC2046FFF76BFA022011B0C4
:1039F00041E610B5436913B1AFF3008001E0FFF772
:103A000084FA012010BD126800F124010A7000221E
:103A10004A700122EDE711684FF0FF32E9E710B577
:103A2000436913B1AFF3008001E0FFF707FB01200A
:103A300010BD126800F1240182840022C284012298
:103A4000EDE711684FF0FF32E9E770B505460C4627
:103A5000164600F06DF8036893F80101012806D0BE
:103A6000FF2C0FD8185D68B101202C7070BDD3F801
:103A700007013246214603442846BDE8704003F260
:103A8000071318474FF0FF3070BD10B500F01AF95A
:103A9000BDE8104000F010B94FF0000200B5134629
:103AA00094469646203922BFA0E80C50A0E80C505E
:103AB000B1F12001BFF4F7AF090728BFA0E80C500F
:103AC00048BF0CC05DF804EB890028BF40F8042B08
:103AD00008BF704748BF20F8022B11F0804F18BF75
:103AE00000F8012B70477546FFF7B4FCAE460500A1
:103AF0006946534620F00700854618B020B5FEF70A
:103B0000CDFFBDE820404FF000064FF000074FF01A
:103B100000084FF0000B21F00701AC46ACE8C009EB
:103B2000ACE8C009ACE8C009ACE8C0098D467047F4
:103B300010B500F005F8001D10BD00BF890A000097
:103B400000487047C80200102DE9F04104461F46A6
:103B500003260168072A01F4006004DB08B116A5FA
:103B600005E016A503E008B115A500E015A521F0B4
:103B700010002060A069C01EA0610FB1401EA061AE
:103B80002046FFF787F94FB1D4E901213846904725
:103B9000206A401C2062C01C206206E0206AFAE70E
:103BA000D4E9012115F8010B9047761EF8D2204682
:103BB000FFF787F9BDE8F0814E414E006E616E005F
:103BC000494E4600696E66002DE9F047814616466B
:103BD0008AB035487844D0E9002380680092CDE966
:103BE0000130314878440C38D0E90223006903924F
:103BF0004FF03702CDE9043041F69B30014491FB90
:103C0000F2F0A0F1800502FB10141B3C02D56442C7
:103C1000012000E00020DFF890A080460027FA4451
:103C2000AAF1C60A0DE0E00709D03246684607EB64
:103C300047010AEB810100F05EFB8DE8070064108C
:103C40007F1C002CEFD1184F7F44B43F17E0E807EA
:103C500013D007EB04100DF1180A90E80E00AAE843
:103C60000E00C068F04201D198190890324606A9AA
:103C700003A800F040FB03AB07C36D10641C002DCC
:103C8000E5D132466946B8F1000F03A802D000F032
:103C90001EFB01E000F02FFBC9E90001C9F8082074
:103CA0000AB0BDE8F0870000F80B00000446AFF34F
:103CB00000802046FCF7ADFA002801D000F02AB8B9
:103CC0007047000010B5012805D0002103A000F0C6
:103CD00027F8012010BD09A1F8E700005349475219
:103CE000544D454D3A204F7574206F6620686561CC
:103CF00070206D656D6F7279000000003A20486594
:103D00006170206D656D6F727920636F727275706E
:103D10007465640001491820ABBEFEE7260002006E
:103D200070B505460C460A2000E06D1C00F052F804
:103D300035B128780028F8D102E0641C00F04AF878
:103D400014B120780028F8D1BDE870400A2000F0B6
:103D500041B800004FF0013C50F8042B51F8043BEF
:103D60009A4221D1A2EB0C03934313EACC1317D14F
:103D700050F8042B51F8043B9A4215D1A2EB0C03E6
:103D8000934313EACC130BD150F8042B51F8043BA6
:103D90009A4209D1A2EB0C03934313EACC13DBD074
:103DA0004FF00000704700BFD01A01BAB1FA81F19C
:103DB00001F0180122FA01F0CB40C1F12001DBB281
:103DC000C0B2C01A2CFA01F3D11A914311EAC311FF
:103DD000E6D1704708B569468DF800000320ABBEF8
:103DE00008BD000000487047AC0200105FEA400CBC
:103DF00008BF91F0000F4FEA8C234FEAC12243EA3B
:103E000051514FEA1C5018BF00F5F0404FEA300006
:103E100018BF41F000415FEA6C5C00F02980BCF102
:103E2000FF3F08BF40F080407047130C06BF1204EC
:103E30004FF0100C4FF0000C130E04BF12020CF1E7
:103E4000080C130F04BF12010CF1040C930F04BFF4
:103E500092000CF1020CD30F04BF52000CF1010CC4
:103E600011464FF00002A0F11F00A0EB0C007047BC
:103E700011F0004F08BF704731F000413FF4D5AF5B
:103E80000B0C06BF09044FF0100C4FF0000C0B0E8A
:103E900004BF09020CF1080C0B0F04BF09010CF15F
:103EA000040C8B0F04BF89000CF1020CCB0F04BF74
:103EB00049000CF1010CCCF12003A0EB0C0022FA1C
:103EC00003F302FA0CF241EA030100F1010070472A
:103ED00020F07F4C80EA030023F07F47ACEB070320
:103EE00003F57C5300F0004003F1FF032DE9804906
:103EF0004FEA154B09B44FEA144325EA0B4E24EA66
:103F000003480FF2042606EB132749083E785FEAC0
:103F1000320203FB0667C7F5000707FB06F64FEA08
:103F200054374FEAD64606F1020607FB066CCCF181
:103F3000005C4FEA1C472CEA074C07FB06F40CFB1D
:103F400006F504EB15464FEA961634BF00204FF0F5
:103F500000404FEAD13706FB07FC4FEA1C4C0CFB34
:103F60000BF7D21B03FB0CF761EB07010CFB0EF701
:103F7000B0EB074072EB17420CFB08F734BFA2EB23
:103F80000742B2EB074261EB17414FEA0C444FEA9C
:103F9000910706FB07FC4FEA1C4C0CFB0BF7B0EB40
:103FA000C74072EB573203FB0CF734BFA2EBC7429A
:103FB000B2EBC74261EB57310CFB0EF7B0EBC70019
:103FC00072EB57720CFB08F734BFA2EBC702B2EBDF
:103FD000C70261EB5771039F4FEA816141EA921179
:103FE00004EBCC044FEAD1374FEA826206FB07FCB0
:103FF00042EA90124FEA80604FEA1C4C0CFB0BF730
:10400000D21B03FB0CF761EB07010CFB0EF7B0EBC7
:10401000074072EB17420CFB08F734BFA2EB0742D4
:10402000B2EB074261EB17414FEA8C554FEA91071B
:1040300004EB9C2406FB07FC4FEA1C4C0CFB0BF723
:10404000B0EBC74072EB573203FB0CF734BFA2EB67
:10405000C742B2EBC74261EB57310CFB0EF7B0EB36
:10406000C70072EB57720CFB08F734BFA2EBC70214
:10407000B2EBC70261EB577115EB4C254FEA81613A
:1040800041EA92114FEA82624FEAD13742EA901236
:1040900006FB07FC44F100044FEA80604FEA1C4C29
:1040A0000CFB0BF7D21B03FB0CF761EB07010CFBBE
:1040B0000EF7B0EB074072EB17420CFB08F734BF6A
:1040C000A2EB0742B2EB074261EB174115EB1C155F
:1040D0004FEA813141EA92414FEA823242EA90420C
:1040E0004FEA80304FEA0C7644F1000448EA03437B
:1040F0004EEA0B484FF0000EB2EB080C71EB0307D1
:1041000024BF624639464EEB0E0E4FF0000B0018EE
:10411000524149414BEB0B0BB2EB080C71EB03071F
:104120007BF1000B24BF624639464EEB0E0E4FF07A
:10413000000B0018524149414BEB0B0BB2EB080C42
:1041400071EB03077BF1000B24BF624639464EEB4F
:104150000E0E51EA020718BF46F0010616EB0E7666
:1041600055F1000254F1000103D5BDE88901BDE815
:104170000088BDE88901BDE80048B619524141EB0D
:104180000101A3F10103704780807F7E7D7C7B7AF3
:104190007978777676757473727171706F6E6E6DF3
:1041A0006C6C6B6A6A696868676666656464636399
:1041B00062616160605F5F5E5E5D5D5C5C5B5B5A1F
:1041C0005A5959585857575656555555545453538C
:1041D00052525251515050504F4F4F4E4E4D4D4DE7
:1041E0004C4C4C4B4B4B4A4A4A4949494848484732
:1041F0004747474646464545454444444443434370
:104200004342424242414141002B26D4770021D013
:104210001CB54FEA370703B44FF010004FF0100100
:104220004FF000000FBCBDE810400BF1010BBBF1DB
:10423000010F08BF5FEA170722BF12F1010211F157
:1042400001014FF0004143F1000300F0004043EA58
:1042500000007047F9D35708DAE746EA064613F13B
:10426000400F4FEA16461FDD13F1200FDFBF164344
:104270000A46002120335B42C8D0C3F1200746EA3A
:10428000064602FA07F74FEA164646EA0706C3F162
:10429000200722FA03F201FA07F721FA03F14FF09F
:1042A000000342EA0702B1E746EA020646EA06468A
:1042B0004FEA164646EA0106BCBF46EA0646360CF9
:1042C0004FF000034FF000024FF000019EE72DE990
:1042D000C048934630B491E8380007C831EA400C32
:1042E00048BF34EA430C03D5FFF7F2FDFFF78CFF1C
:1042F000F0BCBDE800882DE9C048934630B491E891
:10430000380007C810F0804F08BF13F0804F03D16A
:1043100000F005F8FFF778FFF0BCBDE8008820F05A
:104320007F4780EA030023F07F4C07EB0C03A3F5E3
:104330007C5300F00040A3F1FE0392F0000F00F068
:10434000B38095F0000F00F077802DE901494FEA26
:1043500011404FEA144621EA004800FB06FC24EA1B
:10436000064708FB06F607FB08F800FB07F718EB03
:1043700006484CEB164C4FEA124B18EB07484FEA35
:1043800015464CEB174022EA0B4E0BFB06FC25EAC8
:1043900006470EFB06F607FB0EFE0BFB07F71EEBB0
:1043A000064E4CEB164C4FF000061EEB074E4CEB46
:1043B000174B18EB0B0840F1000018EB0E0B58EBF5
:1043C000000840F100008F1A4FF000013CBFC943C4
:1043D000661B14BFB5EB040C00213CBFC943F61BA0
:1043E0004FEA17444EEA8E0E27EA04454FEA1C476F
:1043F00004FB07622CEA074C05FB07F70CFB05F6EC
:1044000004FB0CFC16EB074642EB174216EB0C467E
:1044100042EB1C421BEB060658EB0202414146EA06
:104420009E0601D5BDE80189B619524141EB010153
:10443000A3F10103BDE801894FEA14454FEA114792
:1044400024EA054621EA074C05FB07F406FB07F7BB
:104450000CFB06F105FB0CFC11EB074144EB174488
:104460004FEA124711EB0C4144EB1C4422EA074C83
:1044700005FB07F206FB07F70CFB06F605FB0CFC39
:1044800016EB074642EB174216EB0C4642EB1C4577
:104490006A1854F1000148BF7047B619524141EB08
:1044A0000101A3F10103704795F0000F37D04FEAE7
:1044B00011424FEA144721EA024624EA074C02FB64
:1044C00007F106FB07F70CFB06F402FB0CFC14EBF0
:1044D000074441EB17414FEA154714EB0C4441EBFD
:1044E0001C4125EA074C02FB07F506FB07F70CFB0E
:1044F00006F602FB0CFC16EB074645EB174516EBE0
:104500000C4645EB1C42121951F1000148BF70479F
:10451000B619524141EB0101A3F1010370474FEA83
:1045200014454FEA114724EA054621EA074C05FBEA
:1045300007F106FB07F70CFB06F24FF0000605FB40
:104540000CFC12EB074241EB174112EB0C4251EB12
:104550001C4148BF7047921841EB0101A3F10103D0
:104560007047490050EAC12018BF04204A0D18BF07
:1045700040F0010040F2FF72B2EB515F08BF40F023
:104580000200012808BF0520704730380A2801D2F0
:10459000012070470020704710B500290AD0087824
:1045A000002807D005487844FFF7D4FB002801D045
:1045B000002010BD0248784410BD000062020000D7
:1045C0005A02000010B500290AD00878002807D048
:1045D00005487844FFF7BEFB002801D0002010BD3D
:1045E0000248784410BD0000520200004A02000058
:1045F00010B5FFF7F7FB4FF00001016010BDFFF7AA
:10460000BFB812010001DC00004071040017000176
:104610000000000109022E000101006032090400BF
:104620000004DCA0B00007058103100001070501AC
:10463000031000010705820240000A07050202403C
:10464000000A000000400010CD000000812600009C
:1046500081260000812600008126000081260000BE
:1046600081260000812600008126000081260000AE
:104670008126000081260000000000008126000045
:10468000812600008126000081260000812600008E
:10469000812600008126000081260000812600007E
:1046A000812600008126000081260000812600006E
:1046B000812600008126000081260000812600005E
:1046C000812600008126000081260000812600004E
:1046D000812600008126000081260000812600003E
:1046E000812600007B1B000081260000812600003F
:1046F000812600008126000081260000812600001E
:10470000812600008126000081260000812600000D
:1047100000000000000000003031323334353637FD
:1047200038394142434445464030580030313233F5
:1047300034353637383961626364656640307800F5
:10474000040000080000000000000002000100005A
:104750001000000002400000000000A00000000067
:1047600005400000000000C8000000000C400000F0
:104770000000409C00000000194000000020BCBE6A
:104780000000000034400000BFC91B8E0000000480
:10479000B5400000504BCFD06607E2CF01000000CB
:1047A0006C4100003E8251AADFEEA73401000000F8
:1047B000D9420000DCB5A0E23A301F97FFFFFFFFAF
:1047C000B4450000FD25A0C8E9A3C14FFFFFFFFFCE
:1047D000FF3F00000000008000000000FF3F0000DD
:1047E00000000080000000003449000000000010BC
:1047F0008800000008010000BC490000880000108B
:1048000080040000240100001C00000043000000A0
:10481000F8FFFFFF0C0000000E0000000F0000007A
:104820002E0000001001000043000000F8FFFFFF11
:1048300000404040404040404040414141414140B3
:104840004040404040404040404040404040404068
:1048500040050202020202020202020202020202F7
:1048600002202020202020202020200202020202FC
:104870000202909090909090101010101010101054
:104880001010101010101010101010100202020260
:1048900002028888888888880808080808080808A4
:1048A00008080808080808080808080802020202A0
:1048B00040000000000000000000000000000000B8
:1048C00000000000000000000000000000000000E8
:1048D00000000000000000000000000000000000D8
:1048E00000000000000000000000000000000000C8
:1048F00000000000000000000000000000000000B8
:1049000000000000000000000000000000000000A7
:104910000000000000000000000000000000000097
:104920000000000000000000000000000000000087
:104930000000000000000000000000000000000077
:104940000000000000000000000000000000000067
:104950000000000050C3000048E80100983A000041
:10496000400D0300000000000000000000000000F7
:1049700000000000DD1E00008D1F0000291E000049
:1049800007200000291E0000832000009D20000059
:10499000291E0000D7200000ED2000004F2100005C
:1049A0005F210000291E0000291E0000291E0000B2
:0C49B000291E000000093D00000000006E
:04000005000000CD2A
:00000001FF
