:020000040000FA
:10000000280400109D180000A5180000A718000083
:10001000A9180000AB180000AD1800000000000097
:10002000000000000000000000000000AF18000009
:10003000B118000000000000B318000051020000D9
:10004000B718000099020000B3020000B7180000C2
:10005000B7180000B7180000B7180000B718000064
:10006000B7180000B7180000B7180000B718000054
:10007000B7180000B7180000B7180000B718000044
:10008000B7180000B7180000B7180000B718000034
:10009000B7180000B7180000B7180000B718000024
:1000A000B7180000B7180000B7180000B718000014
:1000B000B7180000B7180000B7180000B718000004
:1000C000B7180000B7180000B718000000F002F8D9
:1000D00000F092F80AA090E8000C82448344AAF150
:1000E0000107DA4501D100F087F8AFF2090EBAE84E
:1000F0000F0013F0010F18BFFB1A43F0010318475C
:100100003431000054310000103A24BF78C878C15F
:10011000FAD8520724BF30C830C144BF04680C600D
:10012000704700000023002400250026103A28BF55
:1001300078C1FBD8520728BF30C148BF0B60704759
:100140006E2901F06385702901F0AC86662903F001
:100150000280652902F0FF87672902F0FC87612988
:10016000AFF3008003681B0A28BF41F080016929B2
:1001700001F01085642901F00D85752901F00A85CB
:100180006F2901F03786782901F07886E92901F096
:10019000CF85E42901F0CC85F52901F0C985EF2947
:1001A00001F03486F82901F077860368DB0928BF5F
:1001B00041F08001632902F02482732902F0298230
:1001C000E32902F03482F32902F0398200207047DB
:1001D0001FB502F0B9FF02F0ABFA040000200021C5
:1001E00002F09CFF401C60600020002102F080FFB4
:1001F000E0601FBD10B510BD02F06CFA1146FFF7AC
:10020000E7FF00F010F802F049FB03B4FFF7F2FF3C
:1002100003BC02F091FB000010B50748016807A07D
:1002200001F00EFA10BD01F075FBFFF7F5FF01F0CC
:1002300015FC00BFFEE700003C000010537973740A
:10024000656D4672657175656E63793A25640A005D
:1002500010480068401C0F490860704700BF411EED
:10026000C9B20800FBD17047002001E0411CC8B2B0
:100270000A28FBDB704700B5024605E0F520FFF7D2
:10028000EDFFF520FFF7EAFF1000A2F10102F5D122
:1002900000BD00000000001010B501204FF040210B
:1002A000086000F05CF807480068401C05490860D9
:1002B00010BD01200449086004480068401C03493F
:1002C00008607047340000100080004038000010C3
:1002D00010B5002001F019F910BD10B5002001F093
:1002E000FCF810BD02F0FF0343EA032242EA024297
:1002F00001F0ACBE7047704770477047FFFFFFFFCB
:100300002548C06820F030002349C8600846C0680E
:10031000C8602248006A40F48020204908620846EC
:10032000C06B20F48020C863704700B5FFF7E8FF7A
:1003300000BD1A48C06B40F480201849C86370475C
:1003400000B5FFF7F6FF00BD1448806B40F4802035
:1003500012498863704700B5FFF7F6FF00BD10B57E
:100360000F48006810F0010F02D0FFF7E2FF01E034
:10037000FFF7EAFF0A4800680921B0FBF1F201FB30
:10038000120010B907A001F05BF905480068401C95
:100390000349086010BD000000C0024000C00920F1
:1003A000040000107E7E7E7E72756E6E696E670A36
:1003B000000000005848006840F008005749C1F8A4
:1003C000C40070475648006820F030005449086067
:1003D0000846006840F0100008600846006820F0F9
:1003E000C00008600846006840F0400008607047A0
:1003F00010B501204B494860052001218140420988
:100400004FF0E02303EB8202C2F8001100BF20216D
:10041000002807DACA06140E434A00F00F031B1F18
:10042000D45403E0CA06130E404A135400BF10BD53
:10043000F0B50646FFF7BEFFFFF7C4FF3C48006873
:10044000C0F3811737B1012F08D0022F09D0032F35
:100450000BD000BF3748006884080AE035480468BC
:1004600007E034480068440803E032480068C408E4
:1004700000BF00BF83202B49C8602009B0FBF6F500
:10048000280A4860E8B208600320C8600720886036
:1004900001204860FFF7ACFFF0BD0520012181403D
:1004A000254A430942F8231000BF704701460A2934
:1004B00008D100BF1B48406910F0200FFAD00D2072
:1004C000184A106000BF1748406910F0200FFAD09A
:1004D000144801600020704700BF1249496911F0BB
:1004E000010FFAD00F490868704700B503460A4665
:1004F00003E0FFF7F1FF01C3521E002AF9D100BD4E
:1005000000B5034603E013F8010BFFF7CFFF18789F
:100510000028F8D100BD0000C4C00F4000C00F404B
:1005200000C0024000C0004018ED00E000E400E020
:10053000A8C10F403C00001080E100E03149087084
:10054000704700202F490870704700B5FFF7F9FF8A
:100550000120FFF7F3FF00BD2A480078C0F3000038
:10056000012800D170470020FCE710B50446FFF7D2
:10057000F3FF18B1204600F05DFB02E0204600F0DA
:10058000FBF910BD10B50446FFF7E6FF18B1204691
:1005900000F069FB02E0204600F003FA10BD70B5E0
:1005A00004460D461646FFF7D7FF28B132462946C6
:1005B000204600F080FB04E032462946204600F049
:1005C0007DFA70BD70B504460D461646FFF7C4FFB0
:1005D00028B132462946204600F0F6FB04E03246B8
:1005E0002946204600F0B0FA70BD10B50446FFF76A
:1005F000B3FF18B1204600F06CFC02E0204600F08A
:10060000E7FA10BD080000100020F849086108460C
:10061000806940F4803088617047F448806D40F410
:100620008070F24988657047F048C06D40F0400026
:10063000EE49C865704710B50446002C7DD1EC48E2
:10064000006840F40010EB49C1F8C4004FF000000E
:10065000E64908610865E848006920F44050E64929
:100660000861084600690861E048006C40F04000FD
:10067000DE4908640846C06D20F04000C865DE48C9
:10068000006920F44040DC490861084600690861BF
:10069000D648006C40F08000D44908640846806D5C
:1006A00040F080008865D448006920F44030D24989
:1006B0000861084600690861CC48006C40F480700D
:1006C000CA4908640846806D40F480708865CA484D
:1006D000406820F00300C849486008464068486008
:1006E000C248006840F48030C0490860084680690C
:1006F00040F480308861C048006820F08040BE49E6
:1007000008600846006840F00040086008464068FD
:1007100020F00C0048600846406840F0080048603F
:100720000846406820F0300048600846406840F0C5
:1007300020004860FFF778FF00E00CE0FFF76DFF56
:10074000FFF762FF0720AD49086002204860622081
:100750000861FFF759FFFFF7F8FE10BD0146A748F3
:10076000816000BFA548C06810F0100FFAD1A348FF
:100770008068C0B27047FF20A049886000BF9F48D2
:10078000C06810F0100FFAD19C488068C0B2704762
:100790007CB50546002400BF07E045FA04F000F0F0
:1007A00001000DF80400601C44B2082CF5DB0024A5
:1007B00008E0C4F107001DF8001091A000F040FF10
:1007C000601C44B2082CF4DB8EA000F039FF7CBD25
:1007D0000020864908610846C06940F48030C8613D
:1007E000704770B50446FFF7F3FF0520FFF7B6FF2B
:1007F000FFF7C1FF0546FFF707FF4CB1294682A06E
:1008000000F01EFF85A000F01BFF2846FFF7C0FF89
:10081000284670BD10B500BF0020FFF7E2FF10F0C2
:10082000010FF9D110BD00B50246FFF7D1FF104608
:10083000FFF794FFFFF7E8FE00BD6C48806D40F0C5
:1008400040006A498865704700B55020FFF7EBFF0C
:1008500000BD00B50346FFF7F7FFFFF7B9FF3120F2
:10086000FFF77CFF1846FFF779FFFFF7CDFE00BDCD
:1008700070B50446FFF7ACFF3520FFF76FFFFFF7B9
:100880007AFF0546FFF7C0FE4CB129466CA000F088
:10089000D7FE70A000F0D4FE2846FFF779FF284667
:1008A00070BD00B50346FFF7CFFFFFF791FF0120B2
:1008B000FFF754FF1846FFF751FFFFF7A5FE00BDF5
:1008C00010B50020FFF78DFF20F07C042046FFF7D5
:1008D000E8FF0020FFF7CCFF20F040042046FFF7A0
:1008E000B8FF0620FFF79FFFFFF7A7FF10BD10B569
:1008F0000020FFF776FF40F07C042046FFF7D1FF91
:100900000020FFF7B5FF40F040042046FFF7A1FFAD
:100910000420FFF788FFFFF787FE10BD00B5B72062
:10092000FFF781FF00BD00B5E920FFF77CFF00BDA8
:1009300070B50446FFF74CFF1520FFF70FFFFFF7D8
:100940001AFF0546FFF760FE4CB129464AA000F0A9
:1009500077FE4EA000F074FE2846FFF719FF2846E8
:1009600070BD10B50120FFF73CFF0120FFF780FFAD
:100970000120FFF7DDFF10BD00B50246FFF728FF9D
:100980009F20FFF7EBFEFFF7F6FE1070521CFFF7FB
:10099000F2FE1070521CFFF7EEFE1070FFF734FEEF
:1009A00000BD00B50246FFF713FF4B20FFF7D6FE50
:1009B000FFF7E1FEFFF7DFFEFFF7DDFEFFF7DBFEEF
:1009C000FFF7D9FE1070521CFFF7D5FE1070FFF72D
:1009D0001BFE00BD01463748814201D90120704706
:1009E00011F0030F68D00120F9E765E000C009208D
:1009F000C4C00F4000C00F4000C00240008008404B
:100A0000256409000A0000007374617475735F72D5
:100A10006567313A3078253032780A0053525030C9
:100A200009544209425033094250320942503109B7
:100A30004250300957454C09425553590A000000AD
:100A40007374617475735F726567323A30782530FC
:100A500032780A0053555309434D50094C4233092B
:100A60004C4232094C423109285229095145095357
:100A70005052310A000000007374617475735F7224
:100A80006567333A3078253032780A00484F4C4455
:100A90002F5253542044525631094452563009289B
:100AA00052290928522909575053094144500941F4
:100AB00044530A000000FF01002090E72DE9F84FA1
:100AC00005460E4617464FF0000B4FEA470A6C02E8
:100AD000D84635E002208DF80000200C8DF801008A
:100AE000200A8DF80200E0B28DF80300FFF7E8FE5F
:100AF000FFF76EFE9DF80000FFF730FE9DF8010045
:100B0000FFF72CFE9DF80200FFF728FE9DF803007A
:100B1000FFF724FE4FF0000907E059460BF1010BE7
:100B2000705CFFF71BFE09F10109B9F1FF0FF4D961
:100B3000FFF76AFD04F58074FFF76CFE08F1010809
:100B4000D045C7D3BDE8F88F2DE9F84F05460E46CE
:100B500017464FF0000B4FEA470A6C02D84633E0C5
:100B600003208DF80000200C8DF80100200A8DF87C
:100B70000200E0B28DF80300FFF72AFE9DF80000A6
:100B8000FFF7ECFD9DF80100FFF7E8FD9DF802007E
:100B9000FFF7E4FD9DF80300FFF7E0FD4FF00009CB
:100BA00007E0FFF7E8FD59460BF1010B705409F11E
:100BB0000109B9F1FF0FF4D9FFF726FD04F58074A0
:100BC000FFF728FE08F10108D045C9D3BDE8F88F2A
:100BD00038B505462C032046FFF7FCFE012803D15B
:100BE000FAA000F02DFD38BDFFF76AFEFFF7F0FD1B
:100BF00020208DF80000200C8DF80100200A8DF8CF
:100C00000200E0B28DF803009DF80000FFF7A6FD9A
:100C10009DF80100FFF7A2FD9DF80200FFF79EFD81
:100C20009DF80300FFF79AFDFFF7EEFCFFF7F2FDDA
:100C300000BFD8E710B50446FFF770FEFFF7C8FD08
:100C40009F20FFF78BFDFFF796FD2070641CFFF7D8
:100C500092FD2070641CFFF78EFD2070FFF7D4FC1E
:100C6000FFF761FE10BD10B50446FFF757FEFFF712
:100C7000AFFD4B20FFF772FDFFF77DFDFFF77BFD1A
:100C8000FFF779FDFFF777FDFFF775FDFFF773FDC0
:100C90002070641CFFF76FFD2070641CFFF76BFD74
:100CA0002070641CFFF767FD2070641CFFF7ACFC2C
:100CB000FFF739FE10BD2DE9FC5F05460E461746CD
:100CC0004FF0000B4FEA470A6C02FFF727FED846A9
:100CD0003EE002208DF80000200E8DF80100200C6F
:100CE0008DF80200200A8DF80300E0B28DF80400B0
:100CF000FFF7E6FDFFF76CFD9DF80000FFF72EFD06
:100D00009DF80100FFF72AFD9DF80200FFF726FD80
:100D10009DF80300FFF722FD9DF80400FFF71EFD7C
:100D20004FF0000907E059460BF1010B705CFFF72B
:100D300015FD09F10109B9F1FF0FF4D9FFF764FCC2
:100D4000FFF792FA04F58074FFF764FD08F10108DB
:100D5000D045BED3FFF7E7FDBDE8FC9F7CB5044658
:100D60000D4602208DF80000200E8DF80100200CA9
:100D70008DF80200200A8DF80300E0B28DF804001F
:100D8000FFF7CCFDFFF79CFDFFF722FD9DF800006B
:100D9000FFF7E4FC9DF80100FFF7E0FC9DF802007E
:100DA000FFF7DCFC9DF80300FFF7D8FC9DF804007A
:100DB000FFF7D4FC2846FFF7D1FCFFF725FCFFF72F
:100DC00029FDFFF7B0FD7CBD2DE9FC5F05460E4611
:100DD00017464FF0000B4FEA470A6C02FFF79EFDE3
:100DE000D8463CE003208DF80000200E8DF801006D
:100DF000200C8DF80200200A8DF80300E0B28DF877
:100E00000400FFF7E5FC9DF80000FFF7A7FC9DF844
:100E10000100FFF7A3FC9DF80200FFF79FFC9DF87F
:100E20000300FFF79BFC9DF80400FFF797FC4FF0D1
:100E3000000907E0FFF79FFC59460BF1010B7054C6
:100E400009F10109B9F1FF0FF4D9FFF7DDFBFFF755
:100E50000BFA04F58074FFF7DDFC08F10108D045BA
:100E6000C0D3FFF760FDBDE8FC9F7CB504460320BE
:100E70008DF80000200E8DF80100200C8DF8020086
:100E8000200A8DF80300E0B28DF80400FFF746FD5C
:100E9000FFF79EFC9DF80000FFF760FC9DF8010045
:100EA000FFF75CFC9DF80200FFF758FC9DF803007B
:100EB000FFF754FC9DF80400FFF750FCFFF75BFCC4
:100EC0000546FFF7A1FBFFF7A5FCFFF72CFD284621
:100ED0007CBD7CB505462C032046FFF77BFD012831
:100EE00003D13AA000F0ACFB7CBDFFF717FDFFF784
:100EF000A4FCFFF7E5FCFFF76BFC20208DF8000059
:100F0000C4F303608DF80100200C8DF80200200A64
:100F10008DF80300E0B28DF804009DF80000FFF7A3
:100F20001DFC9DF80100FFF719FC9DF80200FFF77A
:100F300015FC9DF80300FFF711FC9DF80400FFF776
:100F40000DFCFFF761FBFFF765FCFFF7D0FCFFF737
:100F50006BFBFFF7E8FC00BFC6E71CB5044620208A
:100F60008DF80000C4F303608DF80100200C8DF8AB
:100F70000200200A8DF80300E0B28DF80400FFF7AC
:100F8000CDFCFFF75AFCFFF79BFCFFF721FC9DF817
:100F90000000FFF7E3FB9DF80100FFF7DFFB9DF882
:100FA0000200FFF7DBFB9DF80300FFF7D7FB9DF87E
:100FB0000400FFF7D3FBFFF727FBFFF72BFCFFF73E
:100FC00096FCFFF731FBFFF7AEFC1CBD6572722C7F
:100FD00065726173652061646472206976616C6911
:100FE00064210A0000B50346FFF72EFCFFF7F0FB73
:100FF0001120FFF7B3FB1846FFF7B0FBFFF704FB28
:1010000000BD00B54020FFF724FC00BD00B5002066
:10101000FFF71FFC00BD00B50420FFF7E3FF00BD94
:1010200000B50020FFF7DEFF00BD10B5FFF755F952
:1010300010BD10B5FFF74CF910BD10B550A000F071
:10104000FFFAFFF7F6FFFFF7F8FBFFF739FCFFF7B2
:10105000BFFBC720FFF782FBFFF7D6FAFFF7E4FAE2
:10106000FFF7D8FBFFF7E1FF4AA000F0E9FA49A03B
:1010700000F0E6FA47A000F0E3FA46A000F0E0FA3C
:1010800044A000F0DDFA43A000F0DAFA10BD38B554
:101090006846FFF76AFA9DF80000EF2804D044A0E4
:1010A00000F0CEFA002038BD9DF802009DF8011036
:1010B00040EA0125A5F58040183802D14FF480544C
:1010C00038E0A5F58040173802D14FF4006431E0D4
:1010D000A5F58040173802D14FF400642AE0A5F549
:1010E0008040163802D14FF4806423E0A5F5C0405B
:1010F000163802D14FF480641CE0A5F58040153805
:1011000002D14FF4007415E0A5F5C040153802D1A6
:101110004FF400740EE0A5F58040143802D14FF46E
:10112000807407E0A5F58040193802D14FF40074AF
:1011300000E00024294626A000F082FAE004040C16
:101140002046B0E738B5002400200090FFF740FBB0
:101150009F20FFF703FB05E0FFF70DFB0DF80400F0
:10116000601CC4B2032CF7DBFFF74EFA9DF8023087
:101170009DF801209DF800101CA000F061FA38BD18
:10118000737461727420636869702065726173653D
:101190000A000000636869702065726173652064ED
:1011A0006F6E6521212121212121212121210A0088
:1011B00021217761726E696E67216D616E7566615E
:1011C000637475726572206572722121210A0000B4
:1011D0006D656D6F72795F747970655F6361706161
:1011E000636974793A307825780A00006A65646525
:1011F00063203A2578202578202578200A000000F1
:1012000058480068704700F00301574A52F821100F
:10121000544A11607047014601F00300524A52F8E7
:10122000200070475148006849F64041B0FBF1F09A
:1012300070474E480068400049F64041B0FBF1F06D
:1012400070474A48006849F64041B0FBF1F000EBB6
:101250004000400070474548006849F64041B0FBF7
:10126000F1F000EB8000800070474048006849F6CC
:101270004041B0FBF1F03221484370473B480068E1
:1012800049F64041B0FBF1F000EB800000017047EF
:101290003648006849F64041B0FBF1F0642148430C
:1012A00070473248006849F64041B0FBF1F0C82170
:1012B000484370472D48006849F64041B0FBF1F0C3
:1012C0008910484370472A480068401C2849086034
:1012D000704700202649086070472548006870471D
:1012E00024480068401C23490860704700202149B9
:1012F000086070471F48006870471F480068401C1E
:101300001D490860704700201B49086070471A4853
:101310000068704718480068142801D301207047FE
:101320000020FCE701201549087070470020134990
:10133000087070471148007870471148006820F025
:101340000100401C0E49086070470D480068C0F35A
:10135000000070470A48006820F001000849086052
:10136000704700000C000010200000103C0000102E
:101370001000001014000010180000101C000010D5
:101380003000001010B5002807DACA06140EA14A72
:1013900000F00F031B1FD45403E0CA06130E9E4A2D
:1013A000135410BD70B505460C461DBB9B48006824
:1013B00040F002009A49C1F8C4004FF000004FF01D
:1013C000402108674FF0020048604FF001000860BC
:1013D0004FF000008860C860084684614FF0030049
:1013E00048614FF00100486000F008F91021012029
:1013F000FFF7C8FF012D24D18848006840F00400A1
:101400008749C1F8C4004FF00000864908674FF0D3
:10141000020048604FF0010008604FF00000886053
:10142000C860084684614FF0030048614FF0020035
:1014300000F0E4F830210220FFF7A4FF01207949F1
:101440004860022D22D17548006840F4800074493C
:10145000C1F8C4004FF00000734908674FF0020064
:1014600048604FF0010008604FF000008860C860DD
:10147000084684614FF00300486100F0BFF848213E
:101480000320FFF77FFF012067494860032D23D128
:101490006248006840F400006149C1F8C4004FF0A0
:1014A0000000624908674FF0020048604FF00100F9
:1014B00008604FF000008860C860084684612846D4
:1014C00048614FF0040000F099F850210420FFF724
:1014D00059FF01205549486070BD20B901214FF0E6
:1014E0004022516010E0012803D101214D4A516092
:1014F0000AE0022803D101214B4A516004E003288D
:1015000002D10121494A5160704720B900214FF0B2
:101510004022516010E0012803D10021414A51606E
:101520000AE0022803D100213F4A516004E0032869
:1015300002D100213D4A51607047014631B94FF058
:101540004022506840F00200506016E0012905D1A9
:10155000344A506840F0020050600EE0022905D184
:10156000314A506840F00200506006E0032904D17F
:101570002E4A506840F0020050607047F8B90222CD
:101580004FF040235A600022DA60294A126892081C
:101590004FF47A73B2FBF3F2521E4A434FF04023EA
:1015A0009A61FF221A6004225A6101225A6000BF28
:1015B0004FF04022526812F0010FF9D11DE00128CE
:1015C0001BD10222174B5A600022DA60184A1268B7
:1015D00092084FF47A73B2FBF3F2521E4A43114B56
:1015E0009A61FF221A6004225A6101225A6000BFE8
:1015F0000C4A526812F0010FFAD1704700F01F0236
:101600000121914042094FF0E02303EB8202C2F82E
:101610000011704718ED00E000E400E0C4C00F4086
:1016200000C00F4000800040000009400040094019
:101630003C00001010B504462046FEF761FF10BDC7
:101640000FB408B503A800900648009A029900F06C
:101650002BFA0448FFF7EEFF0020009001B05DF880
:1016600014FB000044000010002020217A4A116081
:1016700000BF7949096811F0400FFAD00721774A75
:1016800011607749774AC2F8A8114FF00001764AF5
:1016900011604FF00101754A11604FF00F01744A5B
:1016A00011604FF00101A2F1040211604FF0AA0194
:1016B000704A11604FF055016A4AC2F88C106B49AC
:1016C0000968022906D000BF6B49096811F0806FD4
:1016D000FAD004E0002000E0401C6428FCD903217B
:1016E000664A11604FF0AA015E4AC2F88C104FF0B2
:1016F0005501604A11604FF00701614A116061496C
:10170000614A11604FF00001604A116043F23A01F2
:10171000544A1160704758480068C0F301600328BC
:1017200068D15248006810F0030006D0012823D089
:1017300002283FD003285CD100E000BF4E4800687B
:10174000C0F30E0000F101004FEA40014548D0F817
:101750008800C0F3074000F10100B1FBF0F04C49F4
:1017600000FB01F03D490968C9B201F10101B0FB7C
:10177000F1F0484908603CE03F480068C0F30E00C3
:1017800000F101004FEA40013648D0F88800C0F36C
:10179000074000F10100B1FBF0F03F4900FB01F010
:1017A0002E490968C9B201F10101B0FBF1F03949D4
:1017B00008601EE030480068C0F30E0000F1010030
:1017C0004FEA40012748D0F88800C0F3074000F1F5
:1017D0000100B1FBF0F04FF4FA4100FB01F01F49AA
:1017E0000968C9B201F10101B0FBF1F029490860B3
:1017F00000BF2FE01D48006810F0030006D001284C
:1018000010D0022819D0032823D100E000BF1348CC
:101810000068C0B200F101001D49B1FBF0F01D49A4
:10182000086016E00D480068C0B200F101001A49D6
:10183000B1FBF0F0174908600BE008480068C0B23F
:1018400000F101004FF4FA41B1FBF0F011490860DA
:1018500000BF00BF70470000A0C10F4004C10F408F
:101860004010110000C00F40ACC10F400CC10F4030
:1018700084C00F408CC00F4088C00F4080C00F4014
:1018800008C10F40DEF7EFEFC4C00F40C8C10F40E2
:1018900000093D003C000010001BB70009488047CC
:1018A00009480047FEE7FEE7FEE7FEE7FEE7FEE742
:1018B000FEE7FEE7FEE7FEE704480549034A054B5D
:1018C0007047000069160000CD00000028020010DB
:1018D000280400102802001070B504460E460025AA
:1018E00006E014F8012B294603A0FFF7A9FE6D1CA2
:1018F000B542F6D370BD00006275665B25645D3A43
:101900003078253032780A007047704710B5FEF7FE
:101910001CFE10BD10B5FFF7FEFE4FF41650FEF78B
:1019200087FD0020FEF787FEFEF7FFFCFFF7C2FCF5
:10193000044621460020FFF735FD07A0FFF780FE93
:101940000CA0FFF77DFE11A0FFF77AFE15A0FFF7B0
:1019500077FEFFF7DBFF10BD0A7E7E7E7E7E7E7EF9
:101960007E7E7E7E7E7E7E7E7E7E7E7E7E7E7E0A0B
:10197000000000007E7E7E7E7E7E7E7E626C6163E5
:101980006B20626F787E7E7E7E7E0A007E7E7E7E0B
:101990007E7E7E7E7E7E7E7E7E7E7E7E7E7E7E7E67
:1019A0007E7E0A00696E697420646F6E65210A008C
:1019B00010B52C48FEF7E6FD03212A48FFF78CFFFF
:1019C00010BD10B528A0FFF73BFEFFF760FB2C49C8
:1019D00008602448FEF7C9FD03212248FFF77CFF79
:1019E00010BD10B527A0FFF72BFE01221D491046A0
:1019F000FEF7E8FD4FF480711A48FFF76DFF10BD48
:101A000070B504464FF44036002522464FF48071ED
:101A10001448FEF767FC3046FFF79FFAE1B2304604
:101A2000FFF79CF93046FFF720FA054629461AA031
:101A3000FFF706FE1BA0FFF703FE70BD10B57C206C
:101A4000FEF72FFF10BD70B51425002403E02046DB
:101A5000FFF7D6FF641C142CF9D370BD10B5FFF747
:101A6000F2FF10BDC40000100A0A3D3D3D3E3E6736
:101A700065745F736563746F725F6E756D0A0000E5
:101A8000400000107E7E7E666C6173682072656126
:101A90006420746573740A00646174613A25640A91
:101AA000000000000A0000001CB50C46064B7B44F9
:101AB00069460090204600F0C4F8044600206946BC
:101AC00000F0D2F820461CBDB701000070B50446F6
:101AD00085690068C10601D5302600E02026C007D0
:101AE00008D070BDD4E9012130469047206A00F14A
:101AF000010020626D1EF5D570BD70B50446856984
:101B00000068C00708D170BDD4E9012120209047AA
:101B1000206A00F1010020626D1EF5D570BD0968D4
:101B20004A0501D540B27047C905FCD500B27047DF
:101B300009684A0501D5C0B27047C905FCD580B215
:101B4000704770B505460C46012A05D02868800606
:101B500000D5EA69002302E0012305E05B1C934203
:101B600002D2E05C0028F9D1A869E618C01AA86181
:101B7000286A184428622846FFF7A8FF04E0D5E940
:101B8000012114F8010B9047B442F8D32846FFF71F
:101B9000B4FF70BD2DE9F041074600251068752996
:101BA000394616A411D0FFF7BAFF002803DAC0F1B6
:101BB000000013A407E039688A0701D511A402E0E8
:101BC000490704D510A4012501E0FFF7B1FF00216A
:101BD0000A2307F1240607E0B0FBF3F203FB12002F
:101BE000303070541046491C0028F5D12B4622464F
:101BF0003846BDE8F04100F08EBA00000000000059
:101C00002D0000002B000000200000001168026879
:101C1000006A530501D508700BE0D30501D5088093
:101C200007E0130603D5C217C1E9000201E052061E
:101C3000086001207047000001694A1C02610878B1
:101C4000704700B58FB0CDE90131002105910549FC
:101C50007944CDE903101146684600F02FF90FB022
:101C600000BD0000E5FFFFFF0A6802F8010B0A60F3
:101C7000704700002DE9FF5F04468A461546DFF8ED
:101C8000AC80F8440027D8E900103E46CDE90010AA
:101C900011E03AF816106A4602A800F0D4FC411C84
:101CA00007D02168890603D5E269391891420ED818
:101CB000074406F101062068800602D5E069B842B3
:101CC00005DDAE42E5DB3AF816000028E1D1A06957
:101CD000C01BA0612046FFF7F9FED8E90010CDE94E
:101CE0000010002016E03AF818106A4602A800F02A
:101CF000AAFC8146401C0BD000250DF1080B05E025
:101D0000D4E901211BF8050090476D1C4D45F7D320
:101D100008F10100B0428046E5DB206A38442062C9
:101D20002046FFF7EAFEBDE8FF9F0000D614000042
:101D30002DE9F0418046D21D22F007020026D2E9AB
:101D40000002F52914A512D0002A06DA0023D0EBF0
:101D5000030063EB020211A508E0D8F800108B071E
:101D600001D50FA502E0490701D50EA501261146B0
:101D7000002408F1240704E000F088F930323A55D5
:101D8000641C50EA0102F7D133462A4621464046F8
:101D9000BDE8F04100F0BFB9000000002D000000D8
:101DA0002B0000002000000030B4002100F12404CA
:101DB0000CE002F0070505F130054FEAD20242EAD5
:101DC0004372655401F101014FEAD30352EA03055E
:101DD000EFD10468002310A2250708D504F02004E1
:101DE0000C4304D0C46901230CA2641EC46130BC3E
:101DF00000F091B910B5044621461068FFF798FE2F
:101E000002462046BDE810400023CDE7D21D22F057
:101E10000701D1E90023C7E70000000030000000FF
:101E2000F0B40F460168090502D5234C7C4402E05A
:101E3000214C7C440E34002100F124050BE002F01B
:101E40000F064FEA1212A65D42EA03724FEA13131D
:101E50006E5401F1010152EA0306F0D122460468F2
:101E60000023240704D5702F05D009B111320223B5
:101E7000F0BC00F050B910320123F9E770B5044608
:101E80000D4621461068FFF753FE024629462046BC
:101E9000BDE870400023C3E7D21D22F00703D3E959
:101EA0000023BDE70368126843F0200303600823A2
:101EB000C3610023B4E70000341300002DE9F05F94
:101EC000044689464FF0000ADFF878B1FB44C0F8B9
:101ED00020A02046E1688847002875D0252806D034
:101EE000D4E901219047206A401C2062F1E70026D6
:101EF0005F462046E16888472028054608DB312DEB
:101F000006D207EB050010F8200C08B10643F0E7F5
:101F1000B00701D526F00406C4F81CA00027C4F8B9
:101F200018A02A2D09D0284601F0DBF838B304EBBD
:101F30008708303DC8F8185019E059F8041B2046AE
:101F400004EB87029161E1688847012F054618D1AB
:101F5000E069002820DA26F020061DE0D8F81800F5
:101F600000EB800005EB40003038C8F81800204630
:101F7000E1688847054601F0B4F80028EED1012F4A
:101F80000AD02E2D08D12046E16888477F1C0546DF
:101F9000022F46F02006C4DBA069002803DA404285
:101FA00046F00106A061F00701D026F010066C2D66
:101FB0000BD0682D09D04C2D39D06A2D35D0742D19
:101FC00035D07A2D33D016E038E0E1682F46204630
:101FD0008847B842054609D16C2F26D04FF480605F
:101FE000E168064320468847054604E06C2F1AD076
:101FF0004FF4807006430DB3A5F14100192802D8B3
:10200000203546F400664A462946204626604E465C
:10201000FEF796F880B101280BD0F61D26F00700D8
:1020200000F1080955E74020E4E78020D8E70020C8
:10203000D6E706F104094CE7284651E7206ABDE8D7
:10204000F09F0000BC1200004FF000020429C0F015
:10205000128010F0030C00F01883CCF1040CBCF1DA
:10206000020F18BF00F8012BA8BF20F8022BA1EB2C
:102070000C0100F00ABB5FEAC17C24BF00F8012B11
:1020800000F8012B48BF00F8012B704730B5B0F1C4
:102090000A024FEA900E71F100034EEA817EB0EB26
:1020A0000E0061EB91014FEA101E4EEA017E10EB2B
:1020B0000E0041EB11114FEA102E4EEA016E10EBAB
:1020C0000E0041EB11214FEA104E4EEA014E10EB8B
:1020D0000E0041EB1141401841F100014FEAD000E0
:1020E00040EA41704FEAD10110EB80054FEA8104CC
:1020F00044EA907444EB01046D1944EB0404521B50
:10210000A3414FF0000348BF0A3200D530BD401C48
:1021100041F1000130BD2DE9F0470D4604469246DD
:10212000994600F124080168880604D5E06921F089
:102130001001216000E00120A84202DDA0EB0507AC
:1021400000E00027A16907EB050202EB0900A1EB03
:102150000000A0612068C00602D42046FFF7B6FC4C
:10216000002608E0D4E901211AF806009047206A09
:10217000401C761C20624E45F4DB2068C0060AD560
:102180002046FFF7A3FC06E0D4E901213020904768
:10219000206A401C2062381EA7F10107F4DC07E02A
:1021A000D4E9012118F805009047206A401C2062FC
:1021B000281EA5F10105F3DC2046FFF79EFC2068F0
:1021C000000602D50220BDE8F0870120FBE770473A
:1021D0002DE9FF4F0C461E464FF0FF378BB0D2E97A
:1021E0000001DDF860800A908A46C1F30A5505B9FE
:1021F0003D46002108464FF00000BAF1000F00F400
:10220000400005DA00EB80004FF4400101EA500085
:102210004FEA9059B9F1010F00DDB9460A9850EA2A
:102220004A000FD044F61050A5F2FF3545432F1455
:10223000B8F1000F1FD07542291E1FDD4846C9F1B5
:1022400000021CE0B8F1010F4FF0000001D1F24391
:1022500007E0302101E02154401CB042FBDB304656
:102260000022002121540B99C1F80880C1E9002007
:102270000FB0BDE8F08FBD1B6D1CDDE74A4600DAEC
:10228000694206A800F098FA06AB07CB03AB07C378
:1022900050460A9900F056FB8DE80700A0F5005063
:1022A0001F3800900398002D09DD42F21F014A46B5
:1022B000084403A90390684600F0B5FD08E0A0F5C6
:1022C00000504A461F3803A90390684600F0BFFD3E
:1022D0008DE807000004000C03D04FF0FF304108E8
:1022E00000E01046B8F1000F03D00022009215461E
:1022F0001FE0751E06D4FFF7C9FE02F130026255D9
:102300006D1EF8D5B3460122084302D000227F1C7F
:1023100004E02078302801D100227F1E002A09978E
:1023200086D01DE0112D07DAFFF7B0FE303262557E
:102330006D1C50EA0102F5D108430FD10021681E3F
:1023400005E0235C625C6354491C2254401E8142B8
:10235000F7DBAB46A81B401E099001E0009848B18E
:10236000002004F80B000B98099AC0F80880C0E917
:10237000002B7DE711264FF0000859E72DE9F04FBB
:1023800088460446D21D22F0070191B0D1E9000130
:10239000CDE90A0100F091FE02460B98C00F01D072
:1023A0002D2007E02068810701D52B2002E02021A5
:1023B00001EAC000032A099001D0072A05DB034681
:1023C0004146204600F0B8F90EE12068800601D5AC
:1023D000E06900E00620B8F1650F814606D0B8F14B
:1023E000660F18D0B8F1670F72D132E00020B9F152
:1023F000110F009001DB112301E009F101030AAA8A
:1024000001A90CA8FFF7E4FEDDE90C70002609F134
:102410000105834648E001204B4600904FF00047FD
:102420000AAA01A90CA8FFF7D3FEDDE90C050E9955
:102430000026AB4619B909F1010100EB0105B9EB22
:10244000050003D4C0F1FF3609F10105A5EB090031
:102450002BE0B9F1010F01DA4FF001090020B9F1C9
:10246000110F0090484601DD112300E003460AAA3F
:1024700001A90CA8FFF7ACFEDDE90C704D46002663
:102480008346206800070AD4AB4500DA5D4601A800
:10249000012D04DD411911F8011C302907D04F45E9
:1024A00002DA17F1040F04DA0120824610E06D1EF3
:1024B000EEE7002F02DCED1B3E4403E0781CA8424F
:1024C00000DD0546A7EB060000F1010A4FF00047CA
:1024D0002068000703D4AA4501DB4FF0FF3A002132
:1024E000B7F1004F0DF143088DF8431022D00220C0
:1024F0002B23002F01DA7F422D230A22011EA0F197
:10250000010000DC4FB197FBF2F102FB117C0F469A
:102510000CF1300C08F801CDF0E7A8F101000370D0
:102520002168090501D5452100E06521A0F10108D8
:1025300000F8011C09980FA9A1EB080707F107078C
:1025400000B1012000EB050101EBEA70A1693844FC
:10255000A1EB0000A0F10100A0612068C00602D438
:102560002046FFF7B3FA099830B1D4E9012190472A
:10257000206A00F1010020622068C00620D52046B4
:10258000FFF7A4FA1CE0002E04DBB34502DD01A82E
:10259000805D00E03020D4E901219047206A761C5C
:1025A000401CBAF1010A20620AD100F0C1F8C068EB
:1025B0000168405CD4E901219047206A401C2062F8
:1025C000281EA5F10105DEDC07E0D4E9012118F899
:1025D000010B9047206A401C2062381EA7F10107BA
:1025E000F3DC2046FFF789FA022011B041E610B56E
:1025F000436913B1AFF3008001E0FFF7A2FA0120B5
:1026000010BD126800F124010A7000224A700122F4
:10261000EDE711684FF0FF32E9E710B5436913B1F8
:10262000AFF3008001E0FFF725FB012010BD126829
:1026300000F1240182840022C2840122EDE71168A6
:102640004FF0FF32E9E770B505460C46164600F03C
:1026500067F8036893F80101012806D0FF2C0FD812
:10266000185D68B101202C7070BDD3F807013246A7
:10267000214603442846BDE8704003F2071318477B
:102680004FF0FF3070BD4FF0000200B51346944686
:102690009646203922BFA0E80C50A0E80C50B1F1BA
:1026A0002001BFF4F7AF090728BFA0E80C5048BFCE
:1026B0000CC05DF804EB890028BF40F8042B08BF6C
:1026C000704748BF20F8022B11F0804F18BF00F868
:1026D000012B7047754600F0E7F8AE4605006946E5
:1026E000534620F00700854618B020B5FFF7E4F800
:1026F000BDE820404FF000064FF000074FF0000803
:102700004FF0000B21F00701AC46ACE8C009ACE883
:10271000C009ACE8C009ACE8C0098D4670470000AC
:1027200010B500F005F8001D10BD00BFF109000054
:1027300000487047E40100102DE9F04104461F46AF
:1027400003260168072A01F4006004DB08B116A51E
:1027500005E016A503E008B115A500E015A521F0D8
:1027600010002060A069C01EA0610FB1401EA061D2
:102770002046FFF7ABF94FB1D4E901213846904725
:10278000206A401C2062C01C206206E0206AFAE732
:10279000D4E9012115F8010B9047761EF8D22046A6
:1027A000FFF7ABF9BDE8F0814E414E006E616E005F
:1027B000494E4600696E66002DE9F047814616468F
:1027C0008AB035487844D0E9002380680092CDE98A
:1027D0000130314878440C38D0E902230069039273
:1027E0004FF03702CDE9043041F69B30014491FBB4
:1027F000F2F0A0F1800502FB10141B3C02D56442EC
:10280000012000E00020DFF890A080460027FA4475
:10281000AAF1C60A0DE0E00709D03246684607EB88
:1028200047010AEB810100F012FB8DE807006410FC
:102830007F1C002CEFD1184F7F44B43F17E0E8070E
:1028400013D007EB04100DF1180A90E80E00AAE867
:102850000E00C068F04201D198190890324606A9CE
:1028600003A800F0F4FA03AB07C36D10641C002D3D
:10287000E5D132466946B8F1000F03A802D000F056
:10288000D2FA01E000F0E3FAC9E90001C9F8082032
:102890000AB0BDE8F0870000540A00000446AFF318
:1028A00000802046FDF7B1FC00487047C4010010CD
:1028B0004FF0013C50F8042B51F8043B9A4221D1CF
:1028C000A2EB0C03934313EACC1317D150F8042B5B
:1028D00051F8043B9A4215D1A2EB0C03934313EA3F
:1028E000CC130BD150F8042B51F8043B9A4209D178
:1028F000A2EB0C03934313EACC13DBD04FF00000A0
:10290000704700BFD01A01BAB1FA81F101F0180185
:1029100022FA01F0CB40C1F12001DBB2C0B2C01AF3
:102920002CFA01F3D11A914311EAC311E6D1704791
:1029300000487047C801001001491820ABBEFEE7EF
:10294000260002005FEA400C08BF91F0000F4FEA3A
:102950008C234FEAC12243EA51514FEA1C5018BF61
:1029600000F5F0404FEA300018BF41F000415FEA47
:102970006C5C00F02980BCF1FF3F08BF40F0804054
:102980007047130C06BF12044FF0100C4FF0000CF0
:10299000130E04BF12020CF1080C130F04BF120136
:1029A0000CF1040C930F04BF92000CF1020CD30F36
:1029B00004BF52000CF1010C11464FF00002A0F1CF
:1029C0001F00A0EB0C00704711F0004F08BF7047CC
:1029D00031F000413FF4D5AF0B0C06BF09044FF0B6
:1029E000100C4FF0000C0B0E04BF09020CF1080C88
:1029F0000B0F04BF09010CF1040C8B0F04BF8900FD
:102A00000CF1020CCB0F04BF49000CF1010CCCF10E
:102A10002003A0EB0C0022FA03F302FA0CF241EAC5
:102A2000030100F10100704720F07F4C80EA0300B1
:102A300023F07F47ACEB070303F57C5300F0004025
:102A400003F1FF032DE980494FEA154B09B44FEA22
:102A5000144325EA0B4E24EA03480FF2042606EB42
:102A6000132749083E785FEA320203FB0667C7F581
:102A7000000707FB06F64FEA54374FEAD64606F141
:102A8000020607FB066CCCF1005C4FEA1C472CEAFF
:102A9000074C07FB06F40CFB06F504EB15464FEA62
:102AA000961634BF00204FF000404FEAD13706FBA6
:102AB00007FC4FEA1C4C0CFB0BF7D21B03FB0CF77B
:102AC00061EB07010CFB0EF7B0EB074072EB17420E
:102AD0000CFB08F734BFA2EB0742B2EB074261EBF5
:102AE00017414FEA0C444FEA910706FB07FC4FEAF7
:102AF0001C4C0CFB0BF7B0EBC74072EB573203FBDF
:102B00000CF734BFA2EBC742B2EBC74261EB5731BF
:102B10000CFB0EF7B0EBC70072EB57720CFB08F71B
:102B200034BFA2EBC702B2EBC70261EB5771039F40
:102B30004FEA816141EA921104EBCC044FEAD137AC
:102B40004FEA826206FB07FC42EA90124FEA80607D
:102B50004FEA1C4C0CFB0BF7D21B03FB0CF761EB91
:102B600007010CFB0EF7B0EB074072EB17420CFBB2
:102B700008F734BFA2EB0742B2EB074261EB174103
:102B80004FEA8C554FEA910704EB9C2406FB07FCA7
:102B90004FEA1C4C0CFB0BF7B0EBC74072EB573203
:102BA00003FB0CF734BFA2EBC742B2EBC74261EBA9
:102BB00057310CFB0EF7B0EBC70072EB57720CFBF2
:102BC00008F734BFA2EBC702B2EBC70261EB577143
:102BD00015EB4C254FEA816141EA92114FEA82627E
:102BE0004FEAD13742EA901206FB07FC44F1000499
:102BF0004FEA80604FEA1C4C0CFB0BF7D21B03FB27
:102C00000CF761EB07010CFB0EF7B0EB074072EB22
:102C100017420CFB08F734BFA2EB0742B2EB0742A6
:102C200061EB174115EB1C154FEA813141EA9241E6
:102C30004FEA823242EA90424FEA80304FEA0C7605
:102C400044F1000448EA03434EEA0B484FF0000EFB
:102C5000B2EB080C71EB030724BF624639464EEB1A
:102C60000E0E4FF0000B0018524149414BEB0B0B7D
:102C7000B2EB080C71EB03077BF1000B24BF62463B
:102C800039464EEB0E0E4FF0000B001852414941F1
:102C90004BEB0B0BB2EB080C71EB03077BF1000B5A
:102CA00024BF624639464EEB0E0E51EA020718BFAA
:102CB00046F0010616EB0E7655F1000254F10001C4
:102CC00003D5BDE88901BDE80088BDE88901BDE8FC
:102CD0000048B619524141EB0101A3F101037047CD
:102CE00080807F7E7D7C7B7A797877767675747349
:102CF000727171706F6E6E6D6C6C6B6A6A69686808
:102D0000676666656464636362616160605F5F5E9D
:102D10005E5D5D5C5C5B5B5A5A5959585857575613
:102D20005655555554545353525252515150505078
:102D30004F4F4F4E4E4D4D4D4C4C4C4B4B4B4A4ACA
:102D40004A4949494848484747474746464645450E
:102D50004544444444434343434242424241414147
:102D6000002B26D4770021D01CB54FEA370703B4D7
:102D70004FF010004FF010014FF000000FBCBDE805
:102D800010400BF1010BBBF1010F08BF5FEA170701
:102D900022BF12F1010211F101014FF0004143F194
:102DA000000300F0004043EA00007047F9D35708E1
:102DB000DAE746EA064613F1400F4FEA16461FDDF2
:102DC00013F1200FDFBF16430A46002120335B4278
:102DD000C8D0C3F1200746EA064602FA07F74FEAD1
:102DE000164646EA0706C3F1200722FA03F201FA63
:102DF00007F721FA03F14FF0000342EA0702B1E7B7
:102E000046EA020646EA06464FEA164646EA010642
:102E1000BCBF46EA0646360C4FF000034FF00002F6
:102E20004FF000019EE72DE9C048934630B491E889
:102E3000380007C831EA400C48BF34EA430C03D5D8
:102E4000FFF7F2FDFFF78CFFF0BCBDE800882DE92D
:102E5000C048934630B491E8380007C810F0804F5E
:102E600008BF13F0804F03D100F005F8FFF778FF9B
:102E7000F0BCBDE8008820F07F4780EA030023F023
:102E80007F4C07EB0C03A3F57C5300F00040A3F14B
:102E9000FE0392F0000F00F0B38095F0000F00F0F9
:102EA00077802DE901494FEA11404FEA144621EAA3
:102EB000004800FB06FC24EA064708FB06F607FB71
:102EC00008F800FB07F718EB06484CEB164C4FEAE6
:102ED000124B18EB07484FEA15464CEB174022EA15
:102EE0000B4E0BFB06FC25EA06470EFB06F607FB1E
:102EF0000EFE0BFB07F71EEB064E4CEB164C4FF08D
:102F000000061EEB074E4CEB174B18EB0B0840F17D
:102F1000000018EB0E0B58EB000840F100008F1A70
:102F20004FF000013CBFC943661B14BFB5EB040C56
:102F300000213CBFC943F61B4FEA17444EEA8E0EF0
:102F400027EA04454FEA1C4704FB07622CEA074CBA
:102F500005FB07F70CFB05F604FB0CFC16EB07461C
:102F600042EB174216EB0C4642EB1C421BEB0606EB
:102F700058EB0202414146EA9E0601D5BDE80189AF
:102F8000B619524141EB0101A3F10103BDE80189EA
:102F90004FEA14454FEA114724EA054621EA074C57
:102FA00005FB07F406FB07F70CFB06F105FB0CFC21
:102FB00011EB074144EB17444FEA124711EB0C4168
:102FC00044EB1C4422EA074C05FB07F206FB07F71B
:102FD0000CFB06F605FB0CFC16EB074642EB174212
:102FE00016EB0C4642EB1C456A1854F1000148BF31
:102FF0007047B619524141EB0101A3F1010370473B
:1030000095F0000F37D04FEA11424FEA144721EAFA
:10301000024624EA074C02FB07F106FB07F70CFB0C
:1030200006F402FB0CFC14EB074441EB17414FEA9A
:10303000154714EB0C4441EB1C4125EA074C02FBFD
:1030400007F506FB07F70CFB06F602FB0CFC16EB7C
:10305000074645EB174516EB0C4645EB1C4212198B
:1030600051F1000148BF7047B619524141EB0101CF
:10307000A3F1010370474FEA14454FEA114724EAD0
:10308000054621EA074C05FB07F106FB07F70CFB99
:1030900006F24FF0000605FB0CFC12EB074241EB79
:1030A000174112EB0C4251EB1C4148BF704792187C
:1030B00041EB0101A3F101037047490050EAC1202F
:1030C00018BF04204A0D18BF40F0010040F2FF7203
:1030D000B2EB515F08BF40F00200012808BF052095
:1030E000704730380A2801D201207047002070470D
:1030F00010B500290AD00878002807D00548784480
:10310000FFF7D6FB002801D0002010BD024878440C
:1031100010BD0000560100004E01000010B500294E
:103120000AD00878002807D005487844FFF7C0FB8C
:10313000002801D0002010BD0248784410BD0000D6
:10314000460100003E01000010B5FFF7F1FB4FF013
:103150000001016010BDFFF711B900000000000080
:1031600000000000303132333435363738394142CF
:1031700043444546403058003031323334353637D9
:103180003839616263646566403078000400000885
:10319000000000000000000200010000100000001C
:1031A00002400000000000A00000000005400000F8
:1031B000000000C8000000000C4000000000409C1F
:1031C00000000000194000000020BCBE000000000C
:1031D00034400000BFC91B8E00000004B540000051
:1031E000504BCFD06607E2CF010000006C410000D9
:1031F0003E8251AADFEEA73401000000D942000050
:10320000DCB5A0E23A301F97FFFFFFFFB445000096
:10321000FD25A0C8E9A3C14FFFFFFFFFFF3F00004E
:103220000000008000000000FF3F00000000008060
:103230000000000080330000000000104400000087
:1032400008010000C433000044000010E403000043
:10325000240100001C00000043000000F8FFFFFFF5
:103260000C0000000E0000000F0000002E00000007
:103270001001000043000000F8FFFFFF0040404045
:103280004040404040404141414141404040404039
:1032900040404040404040404040404040050202E5
:1032A00002020202020202020202020202202020A4
:1032B0002020202020202002020202020202909000
:1032C00090909090101010101010101010101010FE
:1032D0001010101010101010020202020202888852
:1032E000888888880808080808080808080808085E
:1032F0000808080808080808020202024000000046
:1033000000000000000000000000000000000000BD
:1033100000000000000000000000000000000000AD
:10332000000000000000000000000000000000009D
:10333000000000000000000000000000000000008D
:10334000000000000000000000000000000000007D
:10335000000000000000000000000000000000006D
:10336000000000000000000000000000000000005D
:10337000000000000000000000000000000000004D
:10338000000000000000000000000000000000003D
:10339000000000000000000000000000000000002D
:1033A00050C3000048E80100983A0000400D0300B7
:1033B00000000000000000000000000000093D00C7
:0433C0000000000009
:04000005000000CD2A
:00000001FF
