:020000040000FA
:1000000000400010CD000000ED010000ED010000F7
:10001000ED010000ED010000ED010000ED01000028
:10002000ED010000ED010000ED010000ED01000018
:10003000ED01000000000000ED010000ED010000F6
:10004000ED010000ED010000ED010000ED010000F8
:10005000ED010000ED010000ED010000ED010000E8
:10006000ED010000ED010000ED010000ED010000D8
:10007000ED010000ED010000ED010000ED010000C8
:10008000ED010000ED010000ED010000ED010000B8
:10009000ED010000ED010000ED010000ED010000A8
:1000A000030C0000ED010000ED010000ED01000077
:1000B000ED010000ED010000ED010000ED01000088
:1000C000ED010000ED010000ED01000000F002F87C
:1000D00000F040F80AA090E8000C82448344AAF1A2
:1000E0000107DA4501D100F035F8AFF2090EBAE8A0
:1000F0000F0013F0010F18BFFB1A43F0010318475C
:100100003018000050180000103A24BF78C878C199
:10011000FAD8520724BF30C830C144BF04680C600D
:10012000704700000023002400250026103A28BF55
:1001300078C1FBD8520728BF30C148BF0B60704759
:100140001FB501F0C7FB9DE8030001F0C7FA1FBD12
:1001500010B510BD01F044FB1146FFF7F1FF00F0B0
:100160003AF801F062FB03B4FFF7F2FF03BC00F0C2
:1001700061FA000072B64FF00000704762B64FF0AF
:100180000000704740221649282000F026F900F0B0
:10019000D9FC08B100BFFEE71CE000F0EEFC1148FE
:1001A0000068C0F30020012814D10E480068C0F395
:1001B000802001280ED1FFF7DDFF0A48006820F4F7
:1001C0008060084908600A220749032000F0B4FB58
:1001D000FFF7D4FFE1E700F00BF8FFF7D3FF0000D3
:1001E000030C0000000000104800001000BFFEE7F4
:1001F00010B5564856490860FFF7BCFF45F23A0073
:10020000544908600020544908605249C1F8AC01C3
:10021000C1F8C8010846D0F888004FF00101B1EBE1
:10022000106F0BD101204D4908604FF0AA004949D9
:10023000C1F88C004FF05500494908604FF00000AC
:10024000464908604FF0AA004249C1F88C004FF0BF
:1002500055004349086000BF4248006810F0407FE5
:10026000FAD14148006800F0040040F0200039490C
:10027000C1F8A00100BF3C48006810F0400FFAD060
:1002800001203A4908604FF00B003249C1F8840060
:100290004FF0AA00324908604FF0550008604FF057
:1002A00001002E4908604FF0AA002D4908604FF068
:1002B0005500086000BF2B48006810F0807FFAD01E
:1002C00002202B49086000BF2648006810F0806FAC
:1002D000FAD000BF23480068C0F30E000B2805D0F9
:1002E00020480068C0F307400028F3D14FF0030016
:1002F0001A4908604FF0AA001649C1F88C004FF067
:1003000055001749086000BF1648006810F0007FCC
:10031000FAD00220174908604FF000000D49C1F8DB
:10032000A0004FF0AA00144908604FF05500086083
:1003300045F23A000749086010484FF0E021C861D3
:10034000FFF71CFF00F01CF810BD000000000000CB
:1003500008ED00E000C00F40A8C10F4080C00F4072
:100360008CC00F4088C00F40A0C10F400CC10F408F
:1003700004C10F4008C10F40ACC00F4000A60E00E2
:100380000020704720B1012803D002280AD104E0E0
:1003900000BFA549A54A116005E0A349C91EA34AAB
:1003A000116000E000BF00BF704770B50446002533
:1003B000FFF7E0FE204601F04EF80546FFF7DEFEAF
:1003C000284670BD10B50446FFF7D4FE204601F064
:1003D00071F8FFF7D3FE002010BD2DE9F047044669
:1003E00089461646332C03D94FF0FF30BDE8F0871D
:1003F000FFF7C0FE102C10D3A4F110056F0905F013
:100400001F08012000FA08F04FF0E02101EB8701FE
:10041000C1F8000186496E5429E0042C04D0052C53
:100420000BD0062C1BD111E080481830006840F436
:1004300080307E491831086012E07C48183000682E
:1004400040F4003079491831086009E077481830E5
:10045000006840F4802075491831086000E000BF52
:1004600000BF042C03D3251F70490C316E54FFF7D5
:1004700085FE0020BAE72DE9F0410446332C03D96C
:100480004FF0FF30BDE8F081FFF774FE102C10D361
:10049000A4F110056E0905F01F070120B8404FF0C8
:1004A000E02101EB8601C1F8800100206049685419
:1004B0002AE0042C04D0052C0BD0062C1BD111E013
:1004C0005A481830006820F48030584918310860C4
:1004D00012E056481830006820F4003053491831B3
:1004E000086009E051481830006820F480204F4926
:1004F0001831086000E000BF00BF042C04D3251FA2
:1005000000204A490C316854FFF738FE0020B9E753
:100510002DE9F0410446332C03D94FF0FF30BDE8FC
:10052000F081102C02D24FF0FF30F8E7FFF722FEE7
:10053000102C0DD3A4F110056E0905F01F07012042
:10054000B8404FF0E02101EB8601C1F8800123E0C3
:10055000042C04D0052C0BD0062C1BD111E0334801
:100560001830006820F4803030491831086012E0FB
:100570002E481830006820F400302C4918310860EB
:1005800009E02A481830006820F4802027491831F3
:10059000086000E000BF00BFFFF7F0FD0020BEE7ED
:1005A0002DE9F0410446332C03D94FF0FF30BDE86C
:1005B000F081FFF7DFFD102C0DD3A4F110056E09BB
:1005C00005F01F070120B8404FF0E02101EB860144
:1005D000C1F8000123E0042C04D0052C0BD0062C1C
:1005E0001BD111E011481830006840F480300F49E9
:1005F0001831086012E00D481830006840F40030EF
:100600000A491831086009E008481830006840F4C9
:10061000802006491831086000E000BF00BFFFF7E6
:10062000ADFD0020C3E700000400FA050CED00E07A
:1006300000E400E000BFFEE7704702464FF0FF30E5
:10064000704701464FF0FF30704710B504464FF039
:10065000004010BD10B504464FF0004010BD0146EB
:100660000020704701464FF0FF30704702464FF0C0
:10067000FF30704701464FF0FF30704703460020BF
:1006800070470246002070470020704730B58BB09D
:100690000446684600F051FF054604B1256028462F
:1006A0000BB030BD01464FF0FF30704702464FF0AF
:1006B000FF3070470146002070470000D14A1268A1
:1006C0004FF0010303FA00F342EA0302CE4BC3F8F2
:1006D00044221A46C2F84802C2F84C1200BFCB4A64
:1006E000126812F4807FFAD04FF48072C84B1A60FF
:1006F00070470146C748016000BFC448006810F059
:10070000200FFAD02020C24A1060BF48D0F814024F
:10071000C0B27047BF4A106000BFBC4A126812F0F6
:10072000100FFAD01022BA4B1A6051B1B94A1160B9
:1007300000BFB64A126812F0100FFAD01022B44B64
:100740001A60704710B500240021B348FFF7E2FF9C
:10075000B248FFF7CEFF0446B048FFF7CAFF04EBEC
:10076000002084B2204610BD30B504460D460DB1C0
:1007700044F080044FF4807040EA0441A848FFF739
:10078000C9FF30BD10B504464FF4807040EA044103
:10079000A448FFF7BFFF10BD10B504464FF48070AA
:1007A00040EA0441A048FFF7B5FF10BD10B504466C
:1007B0004FF4807040EA04419C48FFF7ABFF10BD46
:1007C00000B500219948FFF7A5FF9948FFF791FF71
:1007D00000BD30B50446250445F4A0600021FFF7B4
:1007E00099FF45F40070FFF784FF30BD70B50446F3
:1007F000002604F14000050445F4A0600021FFF745
:1008000089FF45F40070FFF774FF06460120A04001
:1008100088490860304670BDF0B504460D4604F1C5
:10082000400006042F0447F4807146F4A060FFF7EF
:1008300071FFF0BD00B500217F48FFF76BFF7F48D7
:10084000FFF757FF00BD00B500217D48FFF762FFAD
:1008500000BD00B50020FFF7A9FF00BD00B50120D5
:10086000FFF7A4FF00BD10B5FFF7F3FF002400E081
:10087000641CB4F5003FFBD3FFF7F0FF10BD2DE97A
:10088000F04705460C46914600260027B246B04682
:100890006810012101EB80006A490860284605EBD9
:1008A000D0714FEA6101B5EB410105D100BF664847
:1008B000006810F4406FFAD063480068C0F309087C
:1008C000C84500D9C846002711E06048066804F80A
:1008D000016B4FEA162004F8010B4FEA164004F8AA
:1008E000010B4FEA166004F8010B07F10107B7EBA3
:1008F000980FEAD308F0030ABAF1000F0CD053485E
:1009000006684FF0000705E0F80026FA00F004F84A
:10091000010B7F1C5745F7D340203D49086028460E
:10092000FFF757FFFFF786FF00203749C1F828027D
:1009300008F0FF00BDE8F0872DE9F04381460C4642
:10094000154600260027B0464FEA6900022101EB58
:1009500080063C4806602C48C0F824524FEAA5089F
:100960004FF001071AE014F8016B14F8011B06EBB5
:10097000012614F8011B06EB014614F8011B06EBD7
:1009800001663348066000BF32480068C0F30900C2
:10099000A5EB8701C9B28842F6D17F1C4745E2D951
:1009A0002846E91705EB91718910A5EB8108B8F18C
:1009B000000F12D00026002705E02078F9008840BB
:1009C0000643641C7F1C4745F7D32148066000BFDF
:1009D000204800688005800DFAD145B100BF0B4862
:1009E000006810F0800FFAD080200949086048465E
:1009F000FFF7EFFEFFF727FF0020124908602846A7
:100A0000BDE8F08344C2005000C0005000C2005056
:100A100008C2005010C200500005FD000002FD0099
:100A20000005D0000005D8000005F3000005FE0019
:100A30000002FE0038C200500005F2000002F20081
:100A40000005FA0028C2005020C2005018C2005011
:100A50001CC2005024C2005010B540210020FFF7F6
:100A60002DFE40210120FFF729FE10210220FFF773
:100A700025FE10210320FFF721FE40210420FFF76F
:100A80001DFE40210520FFF719FE10BD10B5032003
:100A9000FFF7ACFE10BD10B50220FFF7A7FE102235
:100AA00080490220FFF7EBFE04463CB17E48006817
:100AB00020F4806000F580607B49086010BD10B5AF
:100AC0000520FFF793FE10BD10B50420FFF78EFE42
:100AD000102274490420FFF7D2FE04463CB172484C
:100AE000006820F4006000F500606F49086010BDE8
:100AF00010B56E48046814F0010F01D000F082FBBD
:100B000014F0020F01D000F039FC14F0040F01D0F2
:100B1000FFF7C1FF14F0080F01D0FFF7B7FF14F083
:100B2000100F01D0FFF7D0FF14F0200F01D0FFF716
:100B3000C6FF10BD10B500F078F9FFF78DFF10BDAE
:100B40007047704710B500F04AF9002056490880F8
:100B5000FFF7F8FDA0F525410F3901D0012010BDA8
:100B600000F063F9FFF778FF0020FFF715FE00F0B3
:100B70004FF9FFF778FE0020F1E710B54A4800680A
:100B8000C0F3C00058B1FFF7F5FA4748006820F0FD
:100B900008004549086000F042FCFFF7EFFA4248C0
:100BA0000068C0F3000048B1FFF7E4FA3E4800686F
:100BB00020F001003C490860FFF7E0FA3A4800687D
:100BC000C0F3400058B1FFF7D5FA3748006820F06D
:100BD000020035490860FFF7D1FAFFF7B1FF32484C
:100BE0000068C0F3800058B1FFF7C4FA2E480068CF
:100BF00020F004002C490860FFF7C0FAFFF7A1FFBE
:100C000010BD70B5002400252748006820F02000A2
:100C10002030254908602648046814F0080F26D0C3
:100C2000FFF7CEFD054615F0100F08D0FFF782FF45
:100C30001D48006820F00100401C1B49086015F0A9
:100C4000080F06D01848006820F00200801C1649E2
:100C5000086015F0020F06D01348006820F0040069
:100C6000001D1149086008201249086010E014F0C6
:100C7000020F04D0FFF73CFF02200E49086014F079
:100C8000040F04D0FFF734FF04200A49086000BFB6
:100C90000548006820F020000349086070BD40F25C
:100CA00013107047480000100000001030C20050C0
:100CB00000C2005008C2005010B56948006810F426
:100CC000007F10D000206749086000BFFFF752FA8C
:100CD000AA20654908604FF055006449C1F8AC008E
:100CE000FFF74CFA00BF00205E49086000BFFFF725
:100CF00041FAAA205C4908604FF055005B49C1F8F1
:100D0000AC00FFF73BFA00BF23205949086000BF41
:100D1000FFF730FAAA20544908604FF055005349B4
:100D2000C1F8AC00FFF72AFA00BF01204D49086066
:100D300000BFFFF71FFAAA204B4908604FF055008B
:100D40004A49C1F8AC00FFF719FA00BF00BF444898
:100D5000006810F4806FFAD003204249086000BF99
:100D6000FFF708FAAA20404908604FF055003F49B4
:100D7000C1F8AC00FFF702FA00BF10BD10B5FFF7D5
:100D8000F9F93C48406820F070503A4948600846FC
:100D9000406840F0A05048600846C06836490840A6
:100DA0003449C8600846C068344908433149C860BE
:100DB0000846006920F4402008610846006940F4B4
:100DC000802008610846806B20F040508863084608
:100DD000806B40F000508863FFF7D0F910BD10B56C
:100DE00012242748006840F000402049C1F8C400A0
:100DF000FFF762FF2348046000BF2248001D00681F
:100E00002040A042F9D1FFF7B9FF10BD70477047ED
:100E100000B50020FFF7FAFF002000E0401CB0F50D
:100E2000003FFBD3FFF7F3FF00BD04200121164A6A
:100E300011601649C1F804024FF00001144A116014
:100E40004FF03F001149C1F83402D1F8401221EAB5
:100E50000001104A11604FF000410F4A11607047C5
:100E6000A8C00F40A0C00F40ACC00F4000C00F4052
:100E7000A4C00F4000C00240CFFFFFCF10000020F1
:100E8000C4C00F40F4CF005008C2005000C0005052
:100E90002CC2005040C20050C0C10F4010B501210B
:100EA0000020FFF7B9FC01210846FFF7B5FC10BD93
:100EB00010B5FFF7F3FF10BD10B50020FFF762FC7F
:100EC00010BD10B50120FFF75DFC10BD70B50546E3
:100ED0000C46402C04DC224629460120FFF72CFD5D
:100EE00070BD70B504460D460020FA494881084699
:100EF0000089A84201DD08460581F648C4600089E2
:100F0000402816DBF3484022C1680120FFF714FD9A
:100F1000F04840894030EF494881FFF72BF9EE480F
:100F2000006820F0C0004030EB490860FFF726F968
:100F300017E0E8480089C2B221460120FFF7FCFC17
:100F4000E4484089E34909890844E2494881FFF7B8
:100F500011F9E148006820F0C000DF490860FFF7A0
:100F60000DF970BDF8B50024002000900026D94886
:100F7000007800F01F05A5B9D7480068C0F300103D
:100F8000012803D103208DF8000002E001208DF834
:100F9000000000208DF8010002216846FFF796FF4F
:100FA00037E0012D09D100208DF800008DF80100F7
:100FB00002216846FFF78AFF2BE0022D27D1C548A2
:100FC000808800F00304C348808810F0800F07D0A9
:100FD000012101EB4401C8B2FFF7FBFB064604E028
:100FE0006106080EFFF7F5FB064616F0020F03D068
:100FF00001208DF8000002E000208DF800000020A4
:101000008DF8010002216846FFF760FF01E0FFF75D
:1010100045FFF8BD70B50024AE48007800F01F050C
:1010200095B9AC48408801280ED1FFF7A3F8AA482B
:10103000006820F01000A8490860FFF79FF8002121
:101040000846FFF743FF21E0022D1DD1A14840884B
:10105000D0B9A048808800F003049E48808810F032
:10106000800F07D0012101EB4401C8B20021FFF736
:10107000D3FB04E06106080E0021FFF7CDFB002141
:101080000846FFF723FF01E0FFF708FF70BD70B5CA
:1010900000249048007800F01F059DB98D484088D5
:1010A00001280FD1FFF766F88B48006820F0100088
:1010B000103089490860FFF761F800210846FFF702
:1010C00005FF21E0022D1DD182484088D0B981481A
:1010D000808800F003047F48808810F0800F07D0DC
:1010E000012101EB4401C8B20121FFF795FB04E0A7
:1010F0006106080E0121FFF78FFB00210846FFF76C
:10110000E5FE01E0FFF7CAFE70BD10B571494988E0
:1011100001F07F000121FFF727FB00210846FFF7C0
:10112000D5FE10BD10B56B484088040A012C04D1CF
:1011300012216A48FFF7D5FE10E0022C0CD1654859
:10114000C0882E2802D92E206249C8806148C188F3
:101150006348FFF7C6FE01E0FFF7A0FE10BD08B52B
:101160005D480068C0F30020009001216846FFF749
:10117000ADFE08BD10B55748408880B9002108462B
:10118000FFF7A4FEFEF7F6FF5348006820F48070D6
:1011900051490860FEF7F2FFFFF793FE1AE04D4851
:1011A0004088012814D100210846FFF78FFEFFF781
:1011B00083FEFFF786FEFEF7DDFF4748006820F458
:1011C000807000F5807044490860FEF7D7FF01E0A9
:1011D000FFF764FE10BD08B50020009001216846AD
:1011E000FFF774FE08BD10B53A48408838B9394851
:1011F000808820B900210846FFF768FE01E0FFF76C
:101200004DFE10BD7CB5002500240020FFF7EEFA4E
:10121000054615F0040F78D000202E49088148813A
:1012200008226946FFF72BFB08280ED00121002079
:10123000FFF7F2FA01210846FFF7EEFA26480068A8
:1012400020F0C000244908607CBD9DF800002149C1
:1012500008709DF8010048709DF802109DF8030089
:1012600001EB00201B4948809DF804109DF8050003
:1012700001EB0020174988809DF806109DF80700B3
:1012800001EB00201349C8800846C0880881084641
:10129000007810F0800F0DD00F48006820F0080093
:1012A00008300D4908600846006820F0C000403052
:1012B000086061E00748C088A0B90748006820F0CE
:1012C00008000830044908600846006820F0C000A3
:1012D000086051E09800001000000010E2180000C3
:1012E000F41800005848C08840280FDD57480068AF
:1012F00020F0C0005549086001210020FFF78CFA5A
:1013000001210846FFF788FA36E007E04F480068F9
:1013100020F0C00080304D4908602DE04B48006847
:10132000C0F38110022821D147484289103011189A
:1013300040220020FFF7A3FA044643484089204496
:1013400041494881402C04D1084640890989884296
:1013500012DB3E48006820F0080008303B49086076
:101360000846006820F0C000086005E037480068C3
:1013700020F0C0003549086000BF65E710B532486D
:10138000008931494989401A04B20120FFF72EFA39
:101390002E480068C0F38110012804D000210846BF
:1013A000FFF794FD10BD402C15DB2748C068264A86
:1013B0005289811840220120FFF7BEFA2248408955
:1013C0004030214948812148006820F0C000403069
:1013D0001E49086021E0A4B11B48C0681A4A52891E
:1013E0008118E2B20120FFF7A7FA1748408920448C
:1013F000154948811548006820F0C000134908606D
:101400000BE054B9002211460120FFF795FA0F486E
:10141000006820F0C0000D49086000BFC2E770B549
:10142000002400250848007800F060040648407851
:1014300000F00F0524B9064951F82500804701E066
:10144000FFF72CFD70BD0000980000100000001098
:1014500004000010704770B5064600F023F90568D7
:1014600006F10B0020F00704B4429CBF002070BDC1
:101470002B466A68BAB11068A04210D304F1080183
:1014800088423CBF5068586007D3516810194160CA
:101490001168091B016058601460101D70BD13466F
:1014A0005268002AE7D12146284600F003F90028B7
:1014B000DED170BD70B50446051F00F0F3F800687A
:1014C000002C14BF446870BD002C18BFA54284BF17
:1014D00020466468F8D801680A18AA4218BF456017
:1014E00003D12A6805461144016028684119A142C8
:1014F0001CBF6C6070BD6168696021680844286029
:1015000070BD000030B503681C1404EB21459BB28C
:1015100089B2194495FBF2F402FB145301EB034129
:1015200091FBF2F302FB131101E05B1E1144002951
:10153000FBDB016003EB044030BD2DE9F0470446BE
:101540004FF0FF3A86B00068029060680390A06890
:101550000490E0680190206900906569B5F1804FC2
:101560007DDCB5F1404F7ADB3C22002102A8FFF779
:10157000C9FF3C22014603A8FFF7C4FF1822014619
:1015800004A8FFF7BFFF411E40F2B55201A8FFF7C4
:10159000B9FF0C22064668460021FFF7B3FF00EBB7
:1015A000860028443D4D00267D440FE0511A5B1C07
:1015B000CDE90031022B02D00C2B07D104E08207C9
:1015C00004D0491C019101E0401C0096009B019A47
:1015D000E95C9142EADD012B06D11C2A04D1810786
:1015E00002D00221CDE90016A0F146018B293FD29D
:1015F0000199009B00228C4602E0AE5C521C3144F3
:101600009A42FADB012B02DD820700D0491E40F22C
:10161000B55540F26D16C21700EB927292106A43F4
:1016200000F0030505FB062285070A4400D1521E7F
:10163000049D02EB4206DDF80C80A94605EBC605C9
:10164000174EC5EB0515029F08EB850535442E1492
:10165000ADB2C6EB0616C5EB0515B60000E007E017
:1016600007EB850506EB154666F31F45360C03D0E0
:10167000504606B0BDE8F087C4E90430521C07208C
:1016800092FBF0F304F1180600FB13200CF1010C9F
:10169000A6E803042846A4E88013EAE776030000DE
:1016A000A039CEFD00487047F00000107047704729
:1016B0007047704738B504460A460020694600F076
:1016C00073F8002808BF38BD02460099204600F094
:1016D0003FF8012038BD012000F054B8F8B500F003
:1016E00059F8054600200C46102000BF0646A819F0
:1016F000A0420DD932466946002000F055F8070097
:1017000008BF00F03FF80098A04218BF0546C41972
:10171000FFF7C8FF05600746F01D20F007004619D7
:10172000284600F00AF8B44208BFF8BDA21B3146B3
:101730003868BDE8F84000F00BB800210160C0E94E
:10174000011070471020704700487047E8000010F3
:10175000034640688C46002818BF814284BF034678
:101760004068F8D818681844884207D00CF1030084
:1017700020F00700001D411A521A0146081D0A6098
:10178000FFF798BE10B500F05BF8BDE8104000F020
:1017900052B80000114B00F580528A421A6001D8FD
:1017A000114670471960704730B50C4D6B46A3F574
:1017B00080532C6822449A420FD89B1A02F580501D
:1017C00003EBD37302EB6303984200D91846C01DA4
:1017D00020F007020C60101B2A6030BD440000108E
:1017E0007546FFF7B1FFAE4605006946534620F047
:1017F0000700854618B020B500F068F8BDE8204025
:101800004FF000064FF000074FF000084FF0000BBC
:1018100021F00701AC46ACE8C009ACE8C009ACE86F
:10182000C009ACE8C0098D4670470446AFF300809C
:101830002046FEF798FC002801D0FEF7FBBE70475B
:1018400010B5012805D0002103A000F021F80120E7
:1018500010BD09A1F8E7000053494752544D454DCA
:101860003A204F7574206F662068656170206D6541
:101870006D6F7279000000003A2048656170206D3C
:10188000656D6F727920636F727275707465640034
:1018900070B505460C460A2000E06D1CFEF7CCFE34
:1018A00035B128780028F8D102E0641CFEF7C4FEA8
:1018B00014B120780028F8D1BDE870400A20FEF766
:1018C000BBBE000000487047EC00001000487047A5
:1018D0004801001010B5FFF7F5FF4FF0000101605F
:1018E00010BD12010001DC0000407104001700016E
:1018F0000000000109022E0001010060320904000D
:101900000004DCA0B00007058103100001070501F9
:10191000031000010705820240000A070502024089
:10192000000A1F1D1F1E1F1E1F1F1E1F1E1F00003F
:1019300050190000000000104800000008010000DD
:101940009819000048000010000100002401000068
:1019500000000000650F000015100000B10E00002F
:101960008F100000B10E00000B11000025110000C7
:10197000B10E00005F11000075110000D7110000CA
:10198000E7110000B10E0000B10E0000B10E000022
:08199000B10E00000000000090
:04000005000000CD2A
:00000001FF
